S011000053657269616C4E65742E737265638C
S2840000000C943F070C9483070C9483070C9483070C9483070C94B2220C9453DC0C9425DF0C94F6DE0C9483070C9483070C9483070C9483070C94EF160C9483070C9439170C9483070C9483070C9483070C9483070C9483070C9483070C9483070C9483070C9483070C9473230C94D3230C94A5230C9483070C9473240C94F6150C94830747
S2840000800C9483070C9483070C9483070C9483070C94E5220C9445230C9417230C9401240C9483070C9483070C94AF150C947BDC0C9483070C9483070C9483070C9483070C9483070C9483070C948307D90CDC0CDF0CE20CE50CE80CEB0CEE0CF10CF40CF70CFA0CFD0C000D030D060D090D450E410ED70E490EEA0DD10D940D9B0DA20DB4
S284000100A60D0C0E190EB80D4D0EAF0DD70ED70ED70ED70ED70E5A0E030E220E3D0E670E6F0E780ED70ED70ED70ED70ED70E350E390ECB0E910E980E9C0EC00EA30EAC0E820EB40E890E9F0F9F0FA50F0B0F670F160FA30FA30FA30FA30FA30F180F1B0F670F1E0F210F390FF20EF70EFC0EBA0F520F5B0F5E0F020FEB0E670F690F6E0FA8
S284000180710F710F0D0FFF0E730F820F850F8A0F900F9F0F9F0FA10FA30FA50FA70FAA0FAD0FC00FC40FC70FE30FCE0FD70F970FDD0F9C0FBD3EEA3EEA3EEA3EC23ED73ECC3ED13EEF3EC73EDC3EDC3EE13EEA3E263F293F2C3F2C3F2F3F3B3F353F383F4B3F323F3E3F413F443F473F5A405E4080406240664080406A4080407140754056
S2840002007D402C460A471D479E45A947A94718471D4720477A474D47A947A9477A4703467F47407BA07BD77BC07BB47BD77BE47B357C357C357C357C357C357C357C357C357CC07BD77B357C347BC97BAE7B757C7A7C0F7D5D7D737D5D7E8F7E417F417F417F417F417F417F417F417F417F357E1E7E417F647C3C7EFB7CE78C118DFB8D2F
S2840002805D8D808D978CFB8DD38DC68DE98DD38C898CE78C118DFB8D5D8D808DA68DFB8DD38DC68DE98DD38C898C70930493DF93DF93DF9309930E938693DF93119314932C933193DF93349337933A93DF933F9342938693479365937993DF9368936B9307936E936E93869386938693869386938693869386938693869386938693869320
S28400030086938693869386934C938693DF93DF93DF93DF93DF93DF93DF93DF93DF93DF93DF93DF93DF93DF9386937C937F93179517941995199519951B9422941995199529942D9446944D941995519458946194199568946C94199573949394A294199597949E94179517951795AA94AA94AA94AA94AA94AA94AA94AA94AA94AA94AA9462
S284000380AA94AA94AA94AA94AA94AA947A94AA9419951995199519951995199519951995199519951995199519951995AA94A69417959A9698969896C796CE96E196E996EC96EF96F296F59604980B981A9822982498269828982B988FAA83AA24AAD2AAD2AA6BAA78AAD2AAD2AAD2AA97AAA6AA44AA50AAD2AA21AAFBB608B72CB73EB7AC
S28400040045B752B75EB769B771B785B7B1C17EC2BAC107C4CBC3ABC17EC27EC27EC285C5D0C1D9C177C52CC262C24CC255C215C415C4F8C27EC27EC2C0C4C0C4C0C47EC2C0C4B9C4B9C464C47EC27EC27EC259C2A1C5A6C5AFC4B3C493C3A1C3BDC3AFC347C362C33EC32DC346C57EC27AC382C38BC37EC2B1C17EC2BAC1D0C180C2D9C18A
S284000480D9C12CC255C24CC23EC37EC27EC2F8C262C205C37EC27EC27EC27EC219C319C319C319C319C319C319C319C319C326C326C326C326C326C326C326C326C326C385C285C285C2B9C2B9C2B9C2D4C2D4C2D4C249D951D962D916DB16DB16DBC1D917DAC6DA16DB66D969D916DB85D9A8D98DD991D916DB16DBD8D8A4D9A0D916DB1E
S28400050016DB16DB16DB16DB16DB16DB16DBB3D9B6D9B9D9ACD916DB02DB16DB16DBC9D8CFD8CCD8D2D81DD932D916DB16DB16DBBAD8BDD8C0D8C6D84DD949D951D962D966D9D5D87BD980D985D991D98DD99CD9A0D9A4D9D8D8A8D906D90CD90CD90CD90CD9F4D8F4D8F4D8F4D8F4D8F4D8F4D8F4D8F4D8FDD8FDD8FDD8FDD8FDD8FDD889
S284000580FDD8FDD8FDD8DDD8DDD8DDD8E2D8E2D8E2D8EBD8EBD8EBD83ADB17DC3CDB17DC17DC17DC17DC17DC17DCE2DB32DB49DB17DC55DBD4DB64DB6BDBD4DBD4DB72DB17DC17DCC4DBCCDBD9DB17DCD4DB17DC17DCC1DB17DC17DC17DCD1DB17DC11DC17DC17DC32DB32DB32DBBEDBA4DB9EDB32DB8ADB97DB17DC35DB35DB35DB17DC1F
S2840006003ADB17DC3CDB32DB32DB49DB49DB55DB6BDB64DB32DB17DC17DC72DBD4DB87DB17DC17DC17DC17DC79DB79DB79DB79DB79DB79DB79DB79DB79DB32DB32DB32DB32DB32DB32DB32DB32DB32DB79DB79DB79DB7DDB7DDB7DDB82DB82DB82DB1710151619202124253234301213220F11142E2F000900000800080008001000040006
S2840006801400010015000100160001001700010018000100190001001A0011002B0002002D0002002F0002003100010032000100330008003B0002003D0001003E0001003F00010040000E014E010400D31EF81DFC1DCF1E001E041E030405060725918D8F00006336F0370AB6B2754E74977223588354DC6DDF6EFEB7A6B5BD60DCA45BDB
S284000700AC2B698FAFE9A30000000002400305000000010864000C0164000000FFFFFFFFFFFFFFFFE803000064A25CA1107385AE0000CA6729A9CDB100000000010100000D000000000000000000000000000000020102000A00000000000000000000000000000003010400080000000000000000000000000000000401060001000000EB
S284000780000000000000000000000000050108000000000000000000000000000000000006010A000100000000000000000000000000000007010C000100000000000000000000000000000008010E000300000000000000000000000000000009011000000000000000000000000000000000000A0112000000000000000000000000006E
S284000800000000000B021400881300000000000000000000000000000C011700000000000000000000000000000000000D041900000000000000000000000000000000000E012F00000000000000000000000000000000000F013100020000000000000000000000000000001001330002000000000000000000000000000000110135005B
S284000880020000000000000000000000000000001201370002000000000000000000000000000000130139000200000000000000000000000000000014013B000200000000000000000000000000000015013D000200000000000000000000000000000016013F0002000000000000000000000000000000170141000200000000000000FC
S2840009000000000000000000180444000000000000000000000000000000000019044900640000000000000000000000000000001A044E00000000000000000000000000000000002500052500062500073400003400013400022B00062B00072E00032B5750414E4944002B574348414E002B5743484D41534B002B574C45415645002B4B
S284000980574A4F494E002B574E574B002B57504152454E54002B574348494C4452454E002B574E4253495A45002B574E42002B574155544F4E4554002B57505752002B57534C454550002B57524F4C45002B57535243002B5753594E43505244002B575458505752002B574C5149002B5752535349002B5754494D454F5554002B57524594
S284000A00545259002B57574149540044004455004453004452002B5750494E470026480025480049002B474D49002B474D4D002B474D52002B47534E002B5743414C494252415445002B574143414C494252415445005A0026460045005100560058002B495052002B494643002644002B5750415353574F52440052005330005333005328
S284000A803400533500533230005332310053323200533233005332340053333000533331005333320053333300533334005333370053353000533531005335320053353300533535005331303000533130310053313032005331303300533130340053313230005331323100533132320053313233005331323400533132350053313236CD
S284000B000053313237005331323800533133300053313331005331333200533133330053313334005331333500533133360053313337005331333800533134300053313431005331343200533134330053313434005331343500533134360053313437005331343800005F0902050000E00167090306000020006E0904040000E00177093D
S284000B800500000010007F0906000000100086090700000010008C090800000020009509090000002000A0090A0000002000A9090B2E00001001AE090C060000E001B8090D090000E002BE090E0000001000C6090F060000E001CD0910030000E001D30911010000E001DD0912020000E001E509130300001001EB09140300001001F20997
S284000C00170100002001FC09160600002001040A15010000E001100A1A59000010020D0A190100001000160A1C03000010010B0A184B00001001520A260000001000540A270000001000570A280600001000590A2906000010005B0A2A06000010005D0A2B06000010005F0A2C010000E001640A2D360000E003690A2E06000010011D0A77
S284000C801D0000001000200A1E0000001000230A1F0600001000250A2007000020002A0A2107000020002F0A220700002000340A230500006001390A240000001000450A25010000E0016C0A2F0400001001770A30E301001007790A3106000020017C0A3201000060017F0A330100006001820A340100006001850A350500002001890AE8
S284000D003605000060018D0A370600002001910A380400006001950A390600006001990A3A06000060019D0A3B0100006001A10A3C0100006001A50A3D0600006001A90A3E0200006001AD0A3F0100006001B10A400600006001B50A410100002001B90A420600002001BD0A430100006001C10A440300006001C50A450600006001CA0AB8
S284000D80460100002001CF0A470100002001D40A480100002001D90A490100002001DE0A4A0600006001E30A4B0600006001E80A4C0600006001ED0A4D0600006001F20A4E0600006001F70A4F0600006001FC0A500600006001010B510600006001060B5206000060010B0B530600006001100B540600006001150B5506000060011A0BCC
S284000E005606000060011F0B570600006001240B580600006001290B5906000060012E0B5A0600006001330B5B0600006001380B5C06000060013D0B5D0600006001420B5E0600006001470B5F01000060014C0B600100006001510B610100006001560B6201000060015B0B630100006001600B640100006001650B000000000000112457
S284000E808091C61B823141F084B78F718093C61B80FF05C081E001C081E18093C61B14BE809160008861809360001092600011241FBECFEFD1E2DEBFCDBF13E0A0E0B2E0E6E2F4EC01E00BBF02C007900D92A438B107D9F71BE1A4E8B3E001C01D92A63CB107E1F70E9479252FB7F8948091E00D9091E10D80619093E10D8093E00D2FBF8F
S284000F000E941D26FDCF0C9400007F937FB7F8949D9AA5988AEF0E94E4078AEF0E94E4079D9886E40E94E40781E0959980E08F9380EF0E94E4078F917FBF7F9108957F937FB7F8949D9AA59886E00E94E4079D988AE00E94E407889495990894881F8F9384E60E94E4078F917FBF7F9108959F937F9398E00E949F07879577959A95992354
S284000F80C9F7872F7F919F9108957F937FB7F894A5989D9A8F9386E00E94E4078F91879508F49D988F9384E60E94E4078F919D987FBF7F9108959F9398E00E94C5079A959923D9F79F91089500000000000000008A958823C9F708955F937F937FB7F894CF93DF93C0E0D0E07F935091B2007091B2007517E1F3739521965091B20057174D
S284001000D9F77F91CE01DF91CF917FBF7F915F910895EF92FF920F93DF93CF93CDB7DEB760970FB6F894DEBF0FBECDBFA82F002309F461C07E010894E11CF11C88E0F70111928A95E9F729833A834B835C836D837E83AF83988780E2801BE82FFF27E7FDF0954D815E816F817885181684F01D861E861F86188A882799278E1B9F0B04C0A8
S28400108076956795579547958A95D2F728C0202F332727FD3095DB01CA01022E04C0B695A795979587950A94D2F78D879E87AF87B88B04C0440F551F661F771FEA95D2F789819A81AB81BC8104C0B695A795979587952A95D2F7482B592B6A2B7B2B49875A876B877C8729853A854B855C856D857E85AF8598898A2F60960FB6F894DEBFC3
S2840011000FBECDBFCF91DF910F91FF90EF900895EF92FF920F93DF93CF93CDB7DEB760970FB6F894DEBF0FBECDBFA82F002309F461C07E010894E11CF11C88E0F70111928A95E9F729833A834B835C836D837E83AF83988780E2801BE82FFF27E7FDF09549815A816B817C81181684F019861A861B861C86882799278E1B9F0B04C0440F52
S284001180551F661F771F8A95D2F728C0202F332727FD3095DB01CA01022E04C0880F991FAA1FBB1F0A94D2F789879A87AB87BC8704C07695679557954795EA95D2F78D819E81AF81B88504C0880F991FAA1FBB1F2A95D2F7482B592B6A2B7B2B4D875E876F87788B29853A854B855C856D857E85AF8598898A2F60960FB6F894DEBF0FBEF6
S284001200CDBFCF91DF910F91FF90EF900895A0E0B0E0EDE0F9E00C94BBE1EC01A880B980CA80DB80A114B104C104D10441F484E2A82E89EDB82E8BE5C82E87E0D82EC601B5012DE133EF41E050E00E94F8E127EA31E440E050E00E944BE17B018C01C601B5012DE133EF41E050E00E94F8E1CA01B9012CEE34EF4FEF5FEF0E944BE16E0D63
S2840012807F1D801F911F97FF04C06150704080409048688379838A839B839B013F77C901CDB7DEB7EAE00C94D7E10E940709089580E893E00E9407090895A0E0B0E08093800390938103A0938203B09383030895FB01DC0102C005900D9241505040D8F70895FB01DC0105900D920020E1F70895FC0105900020E9F7809590958E0F9F1F39
S2840013000895FB01DC014150504030F08D910590801919F40020B9F7881B990B0895FB01DC0104C08D910190801921F441505040C8F7881B990B0895FB01DC0102C001900D9241505040D8F70895DC0101C06D9341505040E0F70895FB01DC010D900020E9F7119701900D920020E1F70895FB01DC0101900D920020E1F70895FB01DC0101
S2840013800D900020E9F711974150504028F0019000200D92C9F708951C920895FB01DC014150504048F001900D920020C9F701C01D9241505040E0F70895FB0151915523A9F0BF01DC014D9145174111E1F759F4CD010190002049F04D9140154111C9F3FB014111EFCF81E090E001970895AEE0B0E0EDEFF9E00C94C1E10D891E8986E02B
S2840014008C831A8309838FEF9FE79E838D839E01275E3F4FCE0101966F89788DA9010E941B0A2F813885020F131FF80110822E96E4E00C94DDE1ABE0B0E0E1E2FAE00C94B3E13C012B015A01FC0117821682838181FD03C06FEF7FEFC6C19AE0892E1E010894211C311CF3012381F20123FD859123FF81912F01882309F4B2C1853239F443
S28400148023FD859123FF81912F01853229F490E0B3010E940E0CE7CF982FFF24EE249924FFE1FF15D0F09B3269F09C3228F4903259F0933291F40EC09D3249F0903369F441E024C052E0F52A84E0F82A28C098E0F92A25C0E0E1FE2A22C0F7FC29C0892F80538A3070F4F6FE05C0989C902C1124980E15C0E89CE02C1124E80EF0E2FF2A78
S2840015000EC09E3229F4F6FC6BC140E4F42A07C09C3619F450E8F52A02C0983649F4F20123FD959123FF91912F01992309F0B8CF892F8554833018F08052833038F444E050E0A40EB51E5FE359830FC0933631F0933779F0933509F056C020C0F5018081898342E050E0A40EB51E610101E010E012C0F501C080D180F6FC03C06FEF7FEF1A
S28400158002C0692D70E042E050E0A40EB51EC6010E94030C8C015FE7F52214C0F501C080D180F6FC03C06FEF7FEF02C0692D70E042E050E0A40EB51EC6010E94F80B8C0150E8F52AF3FE07C01AC080E290E0B3010E940E0CEA948E2D90E008171907A8F30EC0F601F7FC8591F7FE81916F0190E0B3010E940E0CE110EA94015010400115B8
S284001600110579F7EAC0943611F0993669F5F7FE08C0F501208131814281538184E090E00AC0F501808191819C01442737FD4095542F82E090E0A80EB91E9FE6F92257FF09C050954095309521953F4F4F4F5F4FE0E8FE2ACA01B901A1012AE030E00E943A0CD82ED21840C0953729F41F2D1F7E2AE030E01DC01F2D197F9F3661F0903795
S28400168020F4983509F0ACC00FC0903739F0983709F0A6C004C028E030E00AC0106114FD146020E130E004C014FD166020E132E017FF08C0F501608171818281938144E050E008C0F50180819181BC0180E090E042E050E0A40EB51EA1010E943A0CD82ED2188FE7F82EF122F6FE0BC05EEFF522D91438F4F4FE07C0F2FC05C08FEEF822F8
S28400170002C01D2D01C0192DF4FE0DC0FE01ED0DF11D8081803319F499EEF92208C01F5FF2FE05C003C08F2D867809F01F5F0F2DF3FC14C0F0FE0FC01E1510F09D2C0BC09D2C9E0C911A1E2D06C080E290E0B3010E940E0C1F5F1E15C0F304C01E1510F4E11A01C0EE2404FF0FC080E390E0B3010E940E0C02FF1DC001FD03C088E790E085
S2840017800EC088E590E00BC0802F867891F001FF02C08BE201C080E2F7FC8DE290E0B3010E940E0C06C080E390E0B3010E940E0C9A94D914C0F3DA94F101ED0DF11D808190E0B3010E940E0CDD20A9F706C080E290E0B3010E940E0CEA94EE20C1F743CEF30166817781CB012B96E2E10C94CFE1FC010590615070400110D8F78095909512
S2840018008E0F9F1F0895FC016150704001900110D8F7809590958E0F9F1F08950F931F93CF93DF938C01EB018B8181FF1BC082FF0DC02E813F818C819D812817390764F4E881F9810193F983E88306C0E885F985802F0995892B31F48E819F8101969F838E8302C00FEF1FEFC801DF91CF911F910F910895FA01AA27283051F1203181F1F8
S284001880E8946F936E7F6E5F7F4F8F4F9F4FAF4FB1E03ED0B4E03CD0670F781F891F9A1FA11D680F791F8A1F911DA11D6A0F711D811D911DA11D20D009F468943F912AE0269F11243019305D3193DEF6CF010895462F4770405D4193B3E00FD0C9F7F6CF462F4F70405D4A3318F0495D31FD4052419302D0A9F7EACFB4E0A6959795879575
S28400190077956795BA95C9F700976105710508959B01AC010A2E06945795479537952795BA95C9F7620F731F841F951FA01D089508950E94DEBA089523E134E0309398032093970320E530E030939A032093990324EA33E030939C0320939B032FE630E030939E0320939D031092A00310929F031092A2031092A10360E0823009F461E01C
S28400198084E893E00E94E1BA089580E090E00895089584E0089584E0089584E00895DB0190E081319105D0F58A599F4FFC010C94EAE18EE794E02FC08EEB95E02CC08AE996E029C08EEE98E026C082E899E023C08EE09AE020C08EEB9AE01DC08AE99BE01AC08DEB9BE017C080E49CE014C084E49CE011C08AE89CE00EC088EF9CE00BC059
S284001A0085E49DE008C081E69DE005C08CE895E002C083E794E08D939C9308951D921C9208951092630410926404109265041092660410926704109268041092690410926A0410926B0410926C0410926D0410926E0410926F041092700410927104109272048FEF9FEF909304028093030280E098E0A0E0B0E08093050290930602A093E6
S284001A800702B09308021092730410927404109275041092760410927704109278041092790410927A0490910002916088E08093010280910202807F10927B0495799093000280688093020210927C0484E392E190930A02809309028CE090E190930C0280930B0283E080930D0280930E02E1E6FDE08FEF9FEF9183808334962DE0E138D8
S284001B00F207C9F708950E9413120895CF93DF93EB0190E00B978C32910508F048C189589F4FFC010C94EAE18881998190930402809303023CC1888199819093100280930F0235C1888180937D0431C198819170990F990F990F80910002877F59C098819370990F990F990F80910102877E66C08881809373048981809374048A81809309
S284001B8075048B81809376048C81809377048D81809378048E81809379048F8180937A0406C1888180936B04898180936C048A8180936D048B8180936E048C8180936F048D81809370048E81809371048F8180937204EDC08881809363048981809364048A81809365048B81809366048C81809367048D81809368048E81809369048F8183
S284001C0080936A04D4C098819170809100028E7F892B80930002CBC088819981AA81BB818093050290930602A0930702B0930802BEC09881977080910102887F892B80930102B5C098819295990F907E809101028F71892B8093010298819695969596959F7080910202807F92C0888180930D029EC0888180930E029AC0888180937B04DF
S284001C8096C088818093110292C08881809312028EC08881809313028AC088819981AA81BB818093140290931502A0931602B09317027DC088819981AA81BB818093180290931902A0931A02B0931B0270C0988191709295907F809100028F7E99CF988191709295990F907E809100028F7D90CF988191709295990F990F907C809100026D
S284001D008F7B86CF8881998190930C0280930B024EC09881979599279795809100028F7777CF98819170990F809100028D7F70CF888180937C043BC08881998190930A028093090234C0A1E8BDE0FB0181E101900D928150E1F72BC098819170990F990F809100028B7F54CF20E08881811121E0279522272795809102028F77822B08C0F3
S284001D80988197709295907F809102028F78892B809302020CC088819981AA81BB8180931C0290931D02A0931E02B0931F02DF91CF910895CF93DF93EB016115710509F408C190E08733910508F003C18D559F4FFC010C94EAE1809101028695869586958370F6C08091030290910402D4C080910F0290911002CFC080917D04E9C080917F
S284001E000002D9C08091140290911502A0911602B0911702AAC083E0DBC08091180290911902A0911A02B0911B029FC082E0D0C080911202CDC080911102CAC080911302C7C0809163048883809164048983809165048A83809166048B83809167048C83809168048D83809169048E8380916A0417C080916B04888380916C0489838091AA
S284001E806D048A8380916E048B8380916F048C83809170048D83809171048E83809172048F8397C08091050290910602A0910702B09108025AC08091010289C0DB01E3E7F4E088E001900D928150E1F782C085E07FC080ED97E0A0E0B0E047C083E890E05AC081E075C090910102929596959770809102028F70880F880F880F892B880F1A
S284001F00859566C080917B0463C08091000282958F7051C0809100028295869587704BC080910002829586958695837044C080910B0290910C022FC08091000240C08AE047C087E045C084E043C088E041C080910D023EC080910E023BC080911C0290911D02A0911E02B0911F0288839983AA83BB832FC0809100028695869586951BC079
S284001F8080910002869517C080917C0421C08091090290910A02998388831BC0DB01E1E8FDE081E101900D928150E1F712C0809100028695869581700BC080910202881F8827881F05C08091020282958F7087708883DF91CF91089502C00E9457260E947F148823D1F70895A6E0B0E0EAEFFFE00C94BDE18C010097C1F182E591E09A8318
S284002000898381E090E09E838D8368017E010894E11CF11C1FC0CB82DC820E94EC0FC70160E070E00E941D148F5F9F4F21F481E0F80183831AC00E94EC0FF801808129813A818F3F19F0328321830EC02F5F3F4F3A83298389819A818C559140E0F282E591E0F8019283818313822696E8E00C94D9E1A7E0B0E0EFE3F0E10C94BDE18C0138
S2840020800097B1F11982FC0110821B821A8281E090E09F838E836E010894C11CD11C82E0E82EF12CEC0EFD1E1CC0DD82CC820E94EC0FC70160E070E00E941D148F5F9F4F21F481E0F801838313C00E94EC0FF80180819981890F80838A819B8101969B838A838A819B8182559140F8F2F80113822796E8E00C94D9E1AFE0B0E0E2E8F0E132
S2840021000C94C3E18FEF8983CE0102960E94F40F8D81813009F446C0CE0106960E9439108985813009F43EC09E818A81890FD9F191959E838B819C819B878A87CE0101969D878C8781E090E09F878E870E94EC0FCE010A9667ED70E10E94B9148F5F9F4F09F10E94EC0F8A859B8501969B878A878C55914020F082E591E09B878A87CE01AE
S28400218006969D878C870E94EC0FCE010A9667ED70E10E94B9148F5F9F4F21F00E94EC0F80E001C081E02F96E2E00C94DFE10895A6E0B0E0EEEDF0E10C94C1E18901845A9E4F9A8389835E834D837C836B8302C00E9457268091920D8130D1F30115110511F407ED10E10E94EC0FCE010196B8010E94B9148F5F9F4F11F481E007C080E186
S284002200073D180711F40E94EC0F80E02696E4E00C94DDE1A6E0B0E0E0E1F1E10C94C1E18901845A9E4F9A8389835E834D837C836B8302C00E9457268091920D8130D1F30115110511F407ED10E10E94EC0FCE010196B8010E941D148F5F9F4F11F481E007C080E1073D180711F40E94EC0F80E02696E4E00C94DDE18091920D882349F41F
S28400228088E19FE00E947C130E945A1302C00E9457268091920D8130D1F30895A5E1B0E0E4E5F1E10C94BFE10E94110D10E085E0E82EF12CEC0EFD1E812F0E9440128091250FB7010E94DA0EF0922A0FE092290F0E94EC0F87E29FE067ED70E10E94B9148F5F9F4F09F453C00E94EC0F1F5F143119F7C7016FEF70E04AE050E00E94A5091B
S284002300F0922A0FE092290F02E511E01093280F0093270F8AE090E090932C0F80932B0F0E94EC0F87E29FE067ED70E10E94B9148F5F9F4F61F10E94EC0F7E010894E11CF11CC7010E9439108C81813001F18981819589831093280F0093270FF0922A0FE092290F81E090E090932C0F80932B0F0E94EC0F87E29FE067ED70E10E94B914BE
S2840023808F5F9F4F21F00E94EC0F80E001C081E06596E6E00C94DBE1A1E1B0E0E2EDF1E10C94BFE11092260F10E07E010894E11CF11C01E0812F0E9440128091260F882329F4F0922A0FE092290F08C0813031F48091250F69E27FE00E94CF0C0E94EC0F87E29FE060E070E00E941D148F5F9F4F11F481E014C00E94EC0F8091260F882342
S28400240029F48091250FB7010E94860D1F5F143119F40093260FCECF163160F280E06196E6E00C94DBE1A8E0B0E0E9E1F2E10C94C3E1CE0105960E94391088858130D9F0CE0101960E94F40F8C818130A1F089819D81890F41F40E94CC11813061F00E94521380E009C00E944E11813021F00E94521382E001C081E02896E2E00C94DFE1BE
S284002480A4E0B0E0E6E4F2E10C94C1E1082F10E0B801625A794F85E29FE041E050E00E946809000F111F000F111F0C58194FCE010196B80144E050E00E94680989819A819093280F8093270F8B819C8190932C0F80932B0F2496E4E00C94DDE1A3E0B0E0E4E7F2E10C94BDE1CE01019690932A0F8093290FE0902B0FF0902C0FC090270F07
S284002500D090280F81E090E090932C0F80932B0F8091250FBE016E5F7F4F0E94CF0C00E010E032C00E94EC0F87E29FE060E070E00E941D140E94EC0F2A813B81F901E00FF11F908189819817A1F030932A0F2093290FF0922C0FE0922B0FD092280FC092270F87E29FE06AE573E10E94B91481E00FC08091270F9091280F01969093280FFA
S2840025808093270F0F5F1F4F0E151F0558F280E02396E8E00C94D9E1A1E1B0E0E2EDF2E10C94BFE18E010F5F1F4F10932A0F0093290F94E9E92E9DE0F92E8091250FB7010E94DA0E0E94EC0F87E29FE060E070E00E941D140E94EC0F40912B0F50912C0FC701B8010E948F09009711F480E00BC0F0922A0FE092290F87E29FE06AE573E102
S2840026000E94B91481E06196E6E00C94DBE18091930D0E9440128091260F882321F40E94CC128823F1F48091260F813021F40E946E128823B1F48091930D8F5F8093930D843121F481E08093260F02C0863111F080E008951092930D82E08093260F81E0089581E008959093240F8093230F662329F480EE93E9A4E0B0E004C082E390E037
S284002680A0E0B0E080931E0F90931F0FA093200FB093210F81E08093220F88E19FE00E94E71308951092260F8AE593E160E00E943313089581E08093920D0E9407138823E1F38091260F823071F40E947C10813031F48AE593E161E00E94331308950E9452131092920D08951F931FB7F8940E949F161FBF1F910895CF93DF93EC010097EF
S284002700D1F08091A50D9091A60D8C179D0719F460E070E008C085EA9DE0BE010E945C15BC01009741F085EA9DE0AE010E943E1520E030E002C02FEF3FEFC901DF91CF910895FF920F931F93CF93DF93C091A50DD091A60DFC2E0D2F33C01FB7F8940E947E151FBF2A813B814C815D816217730784079507F8F08A85813041F485EA9DE095
S2840027806F2D702FAE010E943E150CC08E819F81A885B985820F931FA41FB51F8A839B83AC83BD83EB85FC850995C091A50DD091A60D06C0FC2E0D2F888199819C01E901209759F6CDB7DEB7E5E00C94DCE11F93CF93DF93EC01009771F0E091A50DF091A60D06C0EC17FD0729F10190F081E02D3097C1F707C02FEF3FEFC901DF91CF917A
S2840028001F9108951FB7F8940E947E151FBF198218822E813F8148855985260F371F481F591F2A833B834C835D8385EA9DE0BE010E94321520E030E0E0CFFC018091A70D882319F02EEF3FEF58C0309709F453C08481958120813181820F931F8150904108F049C081E08093A70D7093340F6093330FADE2BFE086E001900D928150E1F757
S284002880F999FECF20E030E017C0E0912F0FF091300FE20FF31F80912D0F90912E0F019690932E0F80932D0F019792BD81BDF89A80B580832F5F3F4F8091310F9091320F2817390710F31092320F1092310F8091BB0D80618093BB0D2FB7F8948091E00D9091E10D82609093E10D8093E00D2FBF20E030E002C02FEF3FEFC901089590E03B
S2840029008091A70D813009F491E0892F08958091310F9091320F892B51F41092A70DE091330FF091340F309719F10995089560912D0F70912E0F6F5F7F4F70932E0F60932D0F61507040E0912F0FF091300F4191F093300FE0932F0F8CE00E94E7158091310F9091320F01979093320F8093310F0895CF93DF93FC018091A70D882319F016
S2840029802EEF3FEF6BC0309709F466C08481958120813181820F931F8150904108F05CC081E08093A70DADE2BFE086E001900D928150E1F77093340F6093330F672B19F4C0E0D0E03BC060912D0F70912E0F6F5F7F4F70932E0F60932D0F61507040E0912F0FF091300F4191F093300FE0932F0F8CE00E94E7158091310F9091320F019731
S284002A009093320F8093310F24C060912D0F70912E0F6F5F7F4F70932E0F60932D0F61507040E0912F0FF091300F4191F093300FE0932F0F84E00E94E71521968091310F9091320FC817D90700F3F999FECF1092A70D20E030E002C02FEF3FEFC901DF91CF910895DC01FB018D919C911197009711F091838083ED93FC930895CF93DF9308
S284002A80EC01DB01FA01888199814817590739F48081918111821082888399830AC08081918111969C938E93118210828C9111969C91DF91CF910895FC010190F081E02D06C0808191818617970719F0FC013097C1F7CF01089580E197E29093A9008093A800E1EAF0E088E08083808182608083E2E7F0E080818260808308952091A80D67
S284002B003091A90D4091AA0D5091AB0DB901CA0108952091A80D3091A90D4091AA0D5091AB0D260F371F481F591F2093A80D3093A90D4093AA0D5093AB0D8091BC0D80688093BC0D2FB7F8948091E00D9091E10D82609093E10D8093E00D2FBF08951F920F920FB60F9211242F938F939F93AF93BF938091A80D9091A90DA091AA0DB09130
S284002B80AB0D0A96A11DB11D8093A80D9093A90DA093AA0DB093AB0D8091BC0D80688093BC0D2FB7F8948091E00D9091E10D82609093E10D8093E00D2FBFBF91AF919F918F912F910F900FBE0F901F901895982FF999FECF07B600FCFDCF72BD61BD40BD8FB7F8949FBBF99A8FBF08951F920F920FB60F9211242F938F939F93FB9880911B
S284002C00BB0D80618093BB0D2FB7F8948091E00D9091E10D82609093E10D8093E00D2FBF9F918F912F910F900FBE0F901F901895809170008C7F809370008091B60080628093B6001092B2001092B0001092B1001092B3008091B60090E08F719070892BC9F783E087BB87E08093B1008091700081608093700008958091B60090E08F71F1
S284002C809070892BC9F7809170008C7F809370008091B100887F8093B10083B5826083BD8091B60090E08F719070892BC9F78091B6008F7D8093B6000895EF92FF920F931F937B018C016091B200862F90E0809590959C01442737FD4095542F3070407050702E153F054007510798F4D801C701821B930BA40BB50B9C01AD01BB27A52F6E
S284002D00942F832F9093B10D8093B00D2093B20D11C08091B60090E08F719070892BC9F76E0D6093B30082E087BB809170008260809370001F910F91FF90EF900895EF92FF920F931F938091B200682F70E06115710591F484E48093B4008091B60090E08F719070892BC9F7B89B06C08091B200682F70E061507F4FE090AC0DF090AD0D94
S284002D800091AE0D1091AF0DCB01A0E0B0E09C01AD01E5E0220F331F441F551FEA95D1F7281B390B4A0B5B0B2E0D3F1D401F511F7695679576956795CB01A0E0B0E0280F391F4A1F5B1FB901CA011F910F91FF90EF90089560E270E080E090E008951F920F920FB60F920BB60F9211242F933F934F935F936F937F938F939F93AF93BF9362
S284002E00EF93FF93809170008D7F809370001092B20D8091B30D813011F40E9474188091D50D9091D60D892B89F08091B90D88608093B90D2FB7F8948091E00D9091E10D82609093E10D8093E00D2FBFFF91EF91BF91AF919F918F917F916F915F914F913F912F910F900BBE0F900FBE0F901F9018951F920F920FB60F920BB60F92112479
S284002E802F933F934F935F936F937F938F939F93AF93BF93EF93FF938091B00D9091B10D892BA9F58091B20D8823F1F48091B30D813011F40E9474188091D50D9091D60D892BA1F18091B90D88608093B90D2FB7F8948091E00D9091E10D82609093E10D8093E00D2FBF22C08091B60090E08F719070892BC9F78091B20D8093B30082E087
S284002F0087BB8091700082608093700009C08091B00D9091B10D01979093B10D8093B00D8091B30D813011F40E9400188091AC0D9091AD0DA091AE0DB091AF0D805C904EAF4FBF4F8093AC0D9093AD0DA093AE0DB093AF0DFF91EF91BF91AF919F918F917F916F915F914F913F912F910F900BBE0F900FBE0F901F9018958091D50D9091F7
S284002F80D60D892B91F00E947418809170008D7F809370008FB7F8941092B20D1092B10D1092B00D8FBF0E94542108951F931FB7F8940E949F161FBF2091B40D3091B50D4091B60D5091B70D621773078407950770F01092B40D1092B50D1092B60D1092B70D621B730B840B950B0E9489158091A10082608093A1000E94AC191F91089599
S2840030000E941F22882309F450C08091D50D9091D60D892B19F42FEF3FEF64C024982C988091B60090E08F719070892BC9F78091700081FD0AC08FEF8093B3008091B60090E08F719070892BC9F78091B000806C8093B0008091B60090E08F719070892BC9F78091B10080688093B1008091B60090E08F719070892BC9F78091B0008F73AE
S2840030808093B0008091B60090E08F719070892BC9F78091B00080688093B0008091B60090E08F719070892BC9F781E08093B30D8091B60090E08F719070892BC9F78091BD0D80688093BD0D2FB7F8948091E00D9091E10D82609093E10D8093E00D2FBF20E030E0C90108958091B30D813041F51092B30D0E941F22882311F42C980EC0B1
S28400310024982C988091B0008F738093B0008091B60090E08F719070892BC9F7249A8091BC0D84608093BC0D2FB7F8948091E00D9091E10D82609093E10D8093E00D2FBF08951F938091B30D813009F061C08091A1008D7F8093A1008091B40D9091B50DA091B60DB091B70D0097A105B10569F41FB7F8940E949F166093B40D7093B50D54
S2840031808093B60D9093B70D1FBF8091C20D8111EC9AF999FECF0E941F228823C1F42C9A249A8091D50D9091D60D892B29F087E083BF889513BE22C00E943C1685E083BF889513BE0E9418160E947F1917C0909172002091BC0030917A00109272001092BC0010927A00249A87E083BF889513BE909372002093BC0030937A0084E4809390
S284003200B4008091B60090E08F719070892BC9F71F910895A0E0B0E0E0E1F9E10C94B7E100E8C2E8DBE810E092E8C92E9BE8D92EE12CF12C82E8A82E8BE8B82E0E94EC07BC018BE86338780718F19E0140E050E0CB01A0E0B0E082589B48A040B040281739074A075B074CF4123039F480916600815080936600000036C080916600815097
S284003280809366000000EB01C258DB4811E028C08BE86238780739F1CE01A0E0B0E09B0140E050E036014701621A730A840A950A86159705A805B9054CF4113039F4809166008F5F8093660000000DC0809166008F5F809366000000E501C61BD70B12E0015009F0ABCFCDB7DEB7EEE00C94D3E10E941F22882311F40E940A190895CF935E
S284003300DF93C0E0D0E088EC0E94E407219683E1C838D807C1F70E947819DF91CF91089580E28CBB0895ED9A08958DB3ED9880720895179A0895179808952C98249A179A0F9A6D9875980895EAE6F0E080818C608083089584E008951F9310E0289881E80E946425812F0E946425182F289A8830A9F71F9108950E94E40708958091B90DA2
S28400338083FF0BC09FB7F8948091B90D877F8093B90D9FBF0E94592168C08091BA0D87FF0BC09FB7F8948091BA0D8F778093BA0D9FBF0E947E1F59C08091BB0D83FF0BC09FB7F8948091BB0D877F8093BB0D9FBF0E94B9214AC08091BB0D84FF0BC09FB7F8948091BB0D8F7E8093BB0D9FBF0E9487143BC08091BC0D82FF0BC09FB7F894BA
S2840034008091BC0D8B7F8093BC0D9FBF0E94D6172CC08091BC0D85FF0BC09FB7F8948091BC0D8F7D8093BC0D9FBF0E9438211DC08091BC0D87FF0BC09FB7F8948091BC0D8F778093BC0D9FBF0E94A1130EC08091BD0D87FF0AC09FB7F8948091BD0D8F778093BD0D9FBF0E94A1188091B80D8823A1F48091B90D882381F48091BA0D88234C
S28400348061F48091BB0D882341F48091BC0D882321F48091BD0D882361F02FB7F8948091E00D9091E10D82609093E10D8093E00D2FBF08959091C60D21E030E002C0220F331F8A95E2F7922B9093C60D8091BA0D80688093BA0D2FB7F8948091E00D9091E10D82609093E10D8093E00D2FBF0895CF93DF93782F282F30E0A091BE0DB091A0
S284003500BF0D109749F019968D919C911A978217930711F480E010C0A091C00DB091C10D109709F4A6C019968D919C911A978217930709F09EC081E0482F552747FD5095FA01EE0FFF1FE254F24FA081B181109731F4E72FF0E081818F7781838AC05F968C915F9783FD85C05F968C915F975396CD91DC91549784FF0AC068830190F08128
S284003580E02D838994890196948B838B72C0CD2B09F46FC01696CD91DC91179716968D919C911797019617969C938E93169716962D913C91179755968D919C9156972817390721F417961C921E92169716962D913C91179714968D919C9115972817390729F41796DC93CE93169743C05396ED91FC915497EC0FFD1F6083440F551F425492
S284003600524FEA01E881F981878D80FF32C081859285883C910569F516962D913C91179714968D919C9115978217930748F416964D915C91179714968D919C9115970CC02589368916964D915C91179714968D919C911597420F531F481B590B258936898091C50D241B350B90E02817390708F45D9ADF91CF910895DC010097E1F1199625
S2840036808D919C911A97803C910519F0883C910591F58091BE0D9091BF0D8A179B0711F4E0E008C08091C00D9091C10D8A179B0711F5E1E0FF27E7FDF095EE0FFF1FE254F24F118210821996ED91FC911A97F0E011825F968C915F9781FF02C06C9874985F968C9180FF04C055985D9854985C9820E030E002C02FEF3FEFC9010895A0E094
S284003700B0E0E5E8FBE10C94B8E1DC016B017A01009709F49BC019968D919C911A97803C910521F0883C910509F090C0C114D10409F48CC0E114F10409F488C08091BE0D9091BF0D8A179B0711F4E0E009C08091C00D9091C10D8A179B0709F077C0E1E04E2F552747FD5095FA01EE0FFF1FE254F24FC081D18159968D919C915A978A803A
S2840037809B80A880B980892BA1F48A149B0409F05DC0D88ECF8AFB82EA82198218821996ED91FC911A97F0E0818180628183A7014FC07FB6F89400E010E0BA01660F771F6254724F2BC0AA81BB81CD0101969B838A83FB0120813181F901218D328D8217930711F41B821A822A813B81888199812817390719F4BB83AA8313C0FB018081CD
S2840038009181FC012789308D2A0F3B1FD601A00FB11F8C91D9018C930F5F1F4F0E151F0590F28A149B0479F41886440F551F4254524FDA01ED91FC910184F285E02DF0E08181806281837FBEA80102C04FEF5FEFCA01CDB7DEB7EDE00C94D4E16F927F929F92AF92BF92CF92DF92EF92FF920F931F93CF93DF938C015B016A01009709F433
S284003880AEC0DC0119968D919C911A97803C910521F0883C910509F0A2C0A114B10409F49EC0C114D10409F49AC08091BE0D9091BF0D8017910711F4E0E009C08091C00D9091C10D8017910709F089C0E1E06E2F772767FD7095FB01EE0FFF1FE254F24FC081D1819FB6F894EE24FF24AB01440F551F4254524F26C08C819D8135016E0C24
S2840039007F1CFA0120813181D9015396ED91FC915497E80FF91F8081F30180838C819D8101969D838C832C813D81DA01ED91FC91858996892817390711F41D821C820894E11CF11C2C813D818E819F812817390719F0EC14FD0480F2F80181859285883C9105D1F5878D80FF37C02E813F818C819D812817390779F12E813F818C819D8151
S2840039808217930728F44E815F818C819D8110C0FB01EE0FFF1FE254F24F0190F081E02D258936894E815F818C819D81420F531F481B590B660F771F6254724FDB01ED91FC91258936898091C50D241B350B90E02817390708F05D989FBE970102C02FEF3FEFC901DF91CF911F910F91FF90EF90DF90CF90BF90AF909F907F906F90089516
S284003A00FC01009761F081859285883C910539F4878D80FF04C05D9A20E030E002C02FEF3FEFC9010895FC01009761F081859285883C910539F4878D80FF04C05D9820E030E002C02FEF3FEFC9010895282F30E0E091BE0DF091BF0D309739F0818592858217930711F4E0E00CC0E091C00DF091C10D309739F1818592858217930711F5F6
S284003A80E1E0FF27E7FDF095EE0FFF1FE254F24F0190F081E02D3097A9F022813381808191812817390711F481E08087818D928D892B11F4108E178A058CF68DE02D309709F009950895282F30E0E091BE0DF091BF0D309739F0818592858217930711F4E0E00CC0E091C00DF091C10D3097E1F18185928582179307B9F5E1E0FF27E7FD29
S284003B00F095EE0FFF1FE254F24F0190F081E02D309751F1878D887139F526813781848195812817390701F16FB7F89426813781848195818217930728F4468157818481958108C0258936894681578184819581420F531F481B590B6FBF038CF48DE02D309711F0CA01099508959093C40D8093C30D81E08093C20D08951092C20D08955F
S284003B80FC01009789F181859285803C910519F0883C910549F58091BE0D9091BF0D8E179F0711F4E0E008C08091C00D9091C10D8E179F07C9F4E1E0FF27E7FDF095EE0FFF1FE254F24F0190F081E02D22813381808191812817390719F0E0E0F0E006C08085E82FF0E002C0EFEFFFEFCF01089580EC0E94261D089580EC0E94631D0895F3
S284003C0088EC0E94261D089588EC0E94631D0895CF93DF93682F282F30E0E091BE0DF091BF0D309739F0818592858217930711F4E0E00EC0E091C00DF091C10D309709F4A7C0818592858217930709F0A1C0E1E04E2F552747FD5095FA01EE0FFF1FE254F24FA081B181683C09F061C05F968C915F9781FD02C020E01BC01097B1F01996EB
S284003C808D919C911A97883C910579F45F968C915F9781FF0AC08CB190E074E0969587957A95E1F78170907002C08FEF9FEF282F5F968C915F9780FD02C080E01AC01097B1F019968D919C911A97883C910579F45F968C915F9780FF0AC089B190E034E0969587953A95E1F78170907002C08FEF9FEF222311F48823D1F08AE090E0A0E05E
S284003D00B0E08093CD0D9093CE0DA093CF0DB093D00D81E08093D10D8BEC9EE19093D30D8093D20D87EC9DE00E94E71331C02D913C91119712968D919C911397C62FD0E08217930711F15796ED91FC915897E20FF31F80818E832D913C9111972F5F3F4F11963C932E93440F551F4254524FFA0180819181FC01818D928D2817390711F4F4
S284003D801D921C928981806202C0898180648983DF91CF91089588EC0E94081E089588EC0E94081E089580EC0E94081E0895CF93DF93EC01009709F49BC089859A85803C910521F0883C910509F092C08F8D80FD10C02091BE0D3091BF0D2C173D0709F487C08091C00D9091C10D8C179D0741F47FC089859A85883C910509F079C0E9CFAE
S284003E00232B11F4E0E004C0892B09F071C0E1E0FF27E7FDF095EE0FFF1FE254F24FD183C08389859A85883C910519F58F8D81FF02C06C9874988F8D80FF1BC0559A54985C988B899C89892B11F45D9A12C08D899E89089728F08D899E899695879506C08D899E8996958795969587958093C50D5D988B85803401F58A89882369F4898546
S284003E809A85803C910521F0883C9105A9F402C06A9A12C0559A10C089859A85803C910521F0883C910541F404C06A987298729A03C055985D985D9A198218821B821A828B899C89892B11F41E8A1D8A8F89988D892B11F41A8E198E1D821C821F821E8281E08887CE010E94482229853A8502C02FEF3FEFC901DF91CF910895CF92DF9215
S284003F00FF920F931F93DF93CF9300D00F92CDB7DEB781E08983FF2400E010E052E0C52ED12CCC0EDD1E9091C60D89818923B9F02FB7F8949091C60D898189278093C60D2FBF6F2D70E0660F771F6453794FC60142E050E00E946809EA81FB810995F3948981880F89830F5F1F4F06301105D9F60F900F900F90CF91DF911F910F91FF907D
S284003F80DF90CF90089587E08093D40D80E98093BC008091BC0D80628093BC0D2FB7F8948091E00D9091E10D82609093E10D8093E00D2FBF08958091D40D823041F08091D40D833021F08091D40D843021F48091390F880F08C08091D40D853051F48091390F880F8F5F8093BB0085E88093BC00089587E08093D40D80E98093BC00809116
S284004000BC0D80628093BC0D2FB7F8948091E00D9091E10D82609093E10D8093E00D2FBF08959091380F8091370F981790F48091380FE091350FF091360FE80FF11D90818F5F8093380F9093BB0085E88093BC00089586E08093D40D84E98093BC008091BC0D80628093BC0D2FB7F8948091E00D9091E10D82609093E10D8093E00D2FBF4F
S28400408008958091D40D843019F40E94112008958091D40D823021F08091D40D833049F580913A0F90913B0FA0913C0FB0913D0F2091380F21502093380F2091380F04C0B695A795979587952A95D2F78093BB0085E88093BC008091380F882349F58091D40D823011F484E001C085E08093D40D08958091D40D853021F485EA8093BC0016
S284004100089587E08093D40D80E98093BC008091BC0D80628093BC0D2FB7F8948091E00D9091E10D82609093E10D8093E00D2FBF08958091D40D853099F48091370F813021F48091BC008F7B03C08091BC0080648093BC008091BC0085688093BC00089587E08093D40D80E98093BC008091BC0D80628093BC0D2FB7F8948091E00D909128
S284004180E10D82609093E10D8093E00D2FBF0895982F8091D40D853029F58091380FE091350FF091360FE80FF11D90838F5F8093380F2091380F8091370F30E090E001972817390724F48091BC00806403C08091BC008F7B8093BC008091BC0085688093BC00089587E08093D40D80E98093BC008091BC0D80628093BC0D2FB7F8948091A3
S284004200E00D9091E10D82609093E10D8093E00D2FBF0895982F8091D40D853089F48091380FE091350FF091360FE80FF11D90838F5F8093380F86E08093D40D84E904C087E08093D40D80E98093BC008091BC0D80628093BC0D2FB7F8948091E00D9091E10D82609093E10D8093E00D2FBF0895E0913E0FF0913F0F309791F08091D40D27
S284004280863041F48091BC0084FDFCCF81E08093D40D04C081E08093D40D80E00995089581E08093D40D08951092D60D1092D50D0895E091D50DF091D60D309711F182858823A9F483859485892B21F00384F485E02D0995E091D50DF091D60D309789F066817781808591850E945D1608950384F485E02D1092D60D1092D50D309709F03B
S28400430009950895EF92FF920F931F93CF93DF93EC010E94EA162E813F8148855985209701F10E944BE128EE33E040E050E00E9491E179018A01E114F1040105110589F08091D50D9091D60D892B59F4C801B7010E945D16D093D60DC093D50D20E030E002C02FEF3FEFC901CDB7DEB7E6E00C94DBE18091D70D813051F482E08093D70D22
S284004380E091400FF091410F309709F0099508958091D70D882319F42FEF3FEF06C01092D70D0E946C2420E030E0C9010895982F8091D70D823079F4892F8450843058F0903148F481E08093D70D892F0E94D82420E030E002C02FEF3FEFC9010895CF93DF93EC018091D70D882319F5209709F18B819C81892BE9F028812230D0F48A810B
S28400440090E08F739070892BA1F4213019F48981833078F082E08093D70DCE010E9425258F8198859093410F8093400F20E030E002C02FEF3FEFC901DF91CF9108958091D80D0895F999FECF9FB7F89489E0E0E0F0E08093570084919FBF8F70823019F41092D80D03C081E08093D80D8091D80D882369F48FB7F8945F9350E85093610045
S28400448050E0509361005F918FBF0E947F190895DC011996ED91FC911A9711821996ED91FC911A971C968C911C9784831B968C911B97882361F41996ED91FC911A9782E080831996ED91FC911A9712820DC01996ED91FC911A9710821996ED91FC911A9751968C91519782831996ED91FC911A9782811B969C911B97892B82831996ED9106
S284004500FC911A9782811E969C911E97892B82831996ED91FC911A9782811F969C911F97892B82831996ED91FC911A97828150969C915097892B82831996ED91FC911A978081806880831996ED91FC911A978181886181831996ED91FC911A9781818068818308951F920F920FB60F920BB60F9211242F933F934F935F936F937F938F9332
S2840045809F93AF93BF93EF93FF930E94BD178091C20D8111EC98E091C30DF091C40D309709F00995FF91EF91BF91AF919F918F917F916F915F914F913F912F910F900BBE0F900FBE0F901F9018951F920F920FB60F920BB60F9211242F933F934F935F936F937F938F939F93AF93BF93EF93FF938091C8006091CE008C7131F488EC0E94B9
S284004600781A85E00E945A1AFF91EF91BF91AF919F918F917F916F915F914F913F912F910F900BBE0F900FBE0F901F9018951F920F920FB60F920BB60F9211242F933F934F935F936F937F938F939F93AF93BF93EF93FF93E9ECF0E080818F7B808384E00E945A1AFF91EF91BF91AF919F918F917F916F915F914F913F912F910F900BBE3D
S2840046800F900FBE0F901F9018951F920F920FB60F920BB60F9211242F933F934F935F936F937F938F939F93AF93BF93EF93FF93E9ECF0E080818F7D808383E00E945A1AFF91EF91BF91AF919F918F917F916F915F914F913F912F910F900BBE0F900FBE0F901F9018951F920F920FB60F920BB60F9211242F933F934F935F936F937F935F
S2840047008F939F93AF93BF93EF93FF938091C0006091C6008C7131F480EC0E94781A82E00E945A1AFF91EF91BF91AF919F918F917F916F915F914F913F912F910F900BBE0F900FBE0F901F9018951F920F920FB60F920BB60F9211242F933F934F935F936F937F938F939F93AF93BF93EF93FF93E1ECF0E080818F7B808381E00E945A1A5E
S284004780FF91EF91BF91AF919F918F917F916F915F914F913F912F910F900BBE0F900FBE0F901F9018951F920F920FB60F920BB60F9211242F933F934F935F936F937F938F939F93AF93BF93EF93FF93E1ECF0E080818F7D808380E00E945A1AFF91EF91BF91AF919F918F917F916F915F914F913F912F910F900BBE0F900FBE0F901F9019
S28400480018951F920F920FB60F920BB60F9211242F933F934F935F936F937F938F939F93AF93BF93EF93FF938091B90090E0887F90708832910559F1893291058CF48031910511F1813191052CF4009719F1089781F51AC088319105D1F0809751F51AC088349105B9F0893491053CF48033910589F080349105E9F410C08035910581F098
S28400488088359105B1F411C00E94DB1F12C00E9441200FC00E94C31F0CC00E94992009C08091BB000E94C82004C08091BB000E940A21FF91EF91BF91AF919F918F917F916F915F914F913F912F910F900BBE0F900FBE0F901F90189510927C0010927A0010927E0008951F920F920FB60F920BB60F9211242F933F934F935F938F939F9352
S284004900EF93FF938091D90DE091DA0DF091DB0D882351F48091DC0D9091DD0D20917900E80FF91F20830FC08091DC0D9091DD0D40917800509179009C01220F331FE20FF31F5183408301969093DD0D8093DC0D2091DC0D3091DD0D8091DE0D9091DF0D28173907B1F480917A00877F80937A008091BB0D88608093BB0D2FB7F894809115
S284004980E00D9091E10D82609093E10D8093E00D2FBFFF91EF919F918F915F914F913F912F910F900BBE0F900FBE0F901F901895282F1092DD0D1092DC0D843048F481E090E0022E02C0880F991F0A94E2F717C0883011F08A3011F481E011C0893011F08B3011F483E00BC08C3011F08E3011F484E005C08D3011F08F3019F48CE0809384
S284004A007E0080917C0090917C00907E90937C0090917C00922B90937C008F71821729F0243018F08DE70E94E4078091DE0D9091DF0D029720F080917A00886603C080917A00886480937A000895A1E0B0E0EBE2F5E20C94C3E1FC01858196819093DF0D8093DE0D80818093D90D838194819093DB0D8093DA0D828180937C008091D90D84
S284004A80882329F480917C00806280937C00618170E06852794FCE01019641E050E00E9468098981806880937A002196E2E00C94DFE1289A23982B98229A219A209A80E58CBD81E08DBD08958EBD000000000000000000000000000000000000000000000000000000000000000000008DB58EB508950E941ADC0E94B1250895A1E0B0E083
S284004B00E4E8F5E20C94C3E119820E94AA19823051F0833018F4882391F014C0833039F0843081F408C08981887F82600EC08981887F83600AC08981887F846006C08981887F03C08981887F8160898369816F7C6061698383E00E9411262196E2E00C94DFE10E949D198FEF0E94BB198FEF0E94BB190E949B1986E00E94BB190E94991961
S284004B8082E068E00E9411268FEF0E94BB198FEF0E94BB1981E00E9403268F718830D1F70E947E258EE060E00E9411260E94D7DC0E9490190E94931908951F93CF93DF93EC01162F289880E60E94642504C089910E94642511501123D1F7289ADF91CF911F9108951F93CF93DF93EC01162F05C080E20E946425899311501123C9F7DF9109
S284004C00CF911F9108951F932898182F1F731068812F0E946425812F0E946425289A1F9108951F93162F2898806C0E946425812F0E946425289A1F910895E0E0F0E021E030E0B9010E2E02C0660F771F0A94E2F78091E00D9091E10D86239723892BC9F04FB7F8942091E00D3091E10DCB0180959095822393239093E10D8093E00D4FBF2B
S284004C80EE0FFF1FE05EFD4F0190F081E02D099504C03196EB30F105A1F68091E00D9091E10D20E0892B09F021E0822F08950E941D26089521E030E002C0220F331F8A95E2F78091460290914702822B932B90934702809346022FB7F8948091E00D9091E10D80619093E10D8093E00D2FBF0895209146023091470221153105A9F1E0E097
S284004D00F0E061E070E0AB010E2E02C0440F551F0A94E2F7CA0182239323892B09F1242735273093470220934602EE0FFF1FEA5CFD4F0190F081E02D09958091460290914702892B89F02FB7F8948091E00D9091E10D80619093E10D8093E00D2FBF08953196E031F10579F608951092BC141092BB141092BD1487E2EEEDF4E1DF011D9245
S284004D808A95E9F7E5E0F5E18CE5DF011D928A95E9F7F093FC14E093FB141092DD1408958093DD14882319F482E00E945A2608959093BC148093BB1482E00E945A2608958093BD14882361F48FE394E10E94CE79892B19F083E00E945A2682E00E945A260895DC01E091BB14F091BC14EA57FF4F8C918083E091BB14F091BC148481833080
S284004E0071F0863039F0823061F48C91882339F484E006C08C91882311F485E001C087E084831092BC141092BB1480E00E94E02608950F931F93CF93DF93EC018A8D9B8D97FF69C08853904809F465C08FE394E10E94CE795BC0ED8DFE8D9081D2968C91D297981709F04FC014968C911497823039F415968D919C911697069769F46FC033
S284004E80843009F040C015968D919C911697069709F463C087E001C083E014968C931497A458BF4F8C858C93AC57B040823051F4A358BF4F8D859E8511969C938E93AD57B04015C0833099F4FD01E358FF4F8F85808388898183898982838A8983838B8984838C8985838D8986838E8987839D012B573F4F4C8D6D8D7E8DC90150E00E94BC
S284004F009C0983E027C0CD010E94D279DC01009709F0A1CF26C08091DD14882311F505E015E14C8D6D8D7E8DC80150E00E949C09D8019797FE0187E201900D928150E1F785E095E19093FC148093FB1481E00E94D02682E00E945A2604C085E09ECF86E09CCFDF91CF911F910F9108952091F8143091F9143F772F31310518F40E94397CC0
S284004F800895C90180970B9738F0205330402930310510F40E94908008958091BD14823041F483E00E94E0268EEB94E10E9499340895882309F092C08091DD14813099F40E94E0268FE1EEEBF4E1DF011D928A95E9F70E94B6278091BD14823009F07EC00E945A2608958091BB149091BC14892B09F474C081E00E94E0268FE1EEEBF4E161
S284005000DF011D928A95E9F781EF96E29093D7148093D61482E00E94E026E091BB14F091BC14EA57FF4F1082E091BB14F091BC14258136813F772F31310518F40E941D7B0BC0C90180970B9738F0205330402930310510F40E946383E091BB14F091BC14858196818331910531F08833910519F08853904811F483E001C082E08483809131
S284005080D114E091BB14F091BC14882351F487E084831092BC141092BB1480E00E94E0261AC0858196819093CF148093CE148091BA1482AB8F5F8093BA148091D1148F5F8093D1148091BB149091BC14C2969093D3148093D21482E00E945A260895EF92FF920F931F93CF93DF938FE394E10E94CE79EC0192E0E92E84E0F82E17E001E014
S28400510075C08C81873028F4853010F5882329F069C0873009F066C02DC083E00E94227A882361F08091BB149091BC14892B09F059C00C83CE010E94D82654C01C83CA57DF4F1883C658D04083E00E945A264AC0853011F4FC8201C0EC82C658DF4FE881F981CA57D0403097E9F1CE0184589F4F099538C08FE394E1BE010E94EB798D81CE
S2840051809E810197C9F4CA57DF4F8881C658D040882391F4DE01A157BF4FFE01E957FF4F008111812281338144815581668177818D919C910E946152C658DF4FE881F981CA57D040309721F0CE0184589F4F09958FE394E10E94CE79892B59F083E00E945A2607C0CE010E94D279EC01209709F088CFCDB7DEB7E6E00C94DBE1FF920F93E4
S2840052001F93CF93DF938FE394E10E94CE79EC0127E0F22E0BE81DE020C02C818A819B81009789F42430A9F48D819E81FE01EA57FF4F069711F4108301C00083FC8283E00E945A2606C02250233018F401979B838A83CE010E94D279EC012097F1F6CDB7DEB7E5E00C94DCE1A8E0B0E0EAE3F9E20C94C1E18C0188E1BE016F5F7F4F0E940E
S284005280DA0E8FE1BE016B5F7F4F0E94DA0E89819A81AB81BC81880F991FAA1FBB1F2D813E814F815885820F931FA41FB51F37E0B695A795979587953A95D1F789839A83AB83BC83F8019383828314828FE394E1B8010E94BF7983E00E945A262896E4E00C94DDE1EF92FF920F931F937C010FE314E1C8010E94B9790E94B5260C5F1F4FA3
S284005300C8010E947C1310924D148EEF98E290934F1480934E1480E890E0A0E0B0E08093491490934A14A0934B14B0934C14C8010E94E713F70110821F910F91FF90EF900895EF92FF920F931F93E82E9091ED0DE091F20DF091F30D00E060E070E082C0DF018781B5969B012B5D3F4F882309F077C081E08E1528F482E0E81609F075C099
S28400538018C09091F10D8091EF0D981708F06DC09F5F9093F10D13961D921D921D921C921697E091F20DF091F30DE60FF71F128644C09091F00D8091EE0D981708F055C0F090EA0DA091EB0DB091EC0D10E020E030E02DC0FD01E20FF31FA9014D5D5F4F808180FD22C09F5F9093F00D808181608083E091EB0DF091EC0DE20FF31F000F00
S284005400000F80818370802B8083E091F20DF091F30DE60FF71F8091EB0D9091EC0D820F931F4796928B818B04C01F5F9A011F1588F28091EA0D8117C1F0E091F20DF091F30DE60FF71F118681E08783E086118210822091F20D3091F30D260F371F07C00F5FB901091708F47BCF20E030E0C9011F910F91FF90EF900895CF93DF932091FE
S284005480F20D3091F30D8217930708F45CC0821B930B65E270E00E946AE18091ED0D681708F051C085E2689FE0011124F901EC0FFD1F11868085823018F08230E9F508C08091F10D8823C1F181508093F10D34C08091F00D882319F081508093F00D2091EB0D3091EC0D81899289821B930B63E270E00E946AE18091EE0D6817A8F483E251
S284005500689FB0011124F901E60FF71F808180FF0BC08E7F8083E091EB0DF091EC0DE60FF71F80818D7F8083E091F20DF091F30DEC0FFD1F128A118AE091F20DF091F30DEC0FFD1F1782DF91CF910895FC01138A8091E90D81508093E90D21893289CF014396F90109950895FC01DA010097D9F0628F4115510551F08D919D910D90BC9184
S284005580A02D838F948FA58FB68F04C0138E148E158E168E208D318D2115310521F0CF014A96F901099508954091190EE091E20DF091E30D20E031E018C083819481A581B6818A309105A105B10548F00A97A109B10983839483A583B68330E004C013821482158216822F5F3796241730F3332321F084EF9DE00E94C6380895A6E0B0E0F0
S284005600E4E0FBE20C94C1E181E3BE016F5F7F4F0E94DA0E898190E00796AA2797FDA095BA2F9C01AD01E4E0220F331F441F551FEA95D1F7281B390B4A0B5B0B2093110E3093120E4093130E5093140E89E1BE016E5F7F4F0E94DA0E8A818230C1F58E010D5F1F4F88E1B8010E94DA0E2B813C814D815E81898190E0A0E0B0E08217930716
S284005680A407B50760F0220F331F441F551F2B833C834D835E8388E1B8010E94860D8091110E9091120EA091130EB091140E2B813C814D815E81820F931FA41FB51F8093110E9093120EA093130EB093140E8BE161E17EE00E94860D8091110E9091120EA091130EB091140E9C01AD01220F331F441F551F280F391F4A1F5B1F2093150E87
S2840057003093160E4093170E5093180E84EF9DE060E02AE030E040E050E004ED1AE20E94CF3882E09EE060E02AE030E040E050E003E01CE20E94CF388091020E813041F482E09EE00E94C63882E09EE00E94F1388091F40D813041F484EF9DE00E94C63884EF9DE00E94F1382696E4E00C94DDE1CF93DF93EC01342F7091190E4091E20D99
S2840057805091E30DFA0120E014C083819481A581B6810097A105B10551F0808191818C179D0729F48281861711F481E029C02F5F3796271750F3332311F18091E80DE7E08E9FF0011124E40FF51FD183C08362832091150E3091160E4091170E5091180E23833483458356838F5F8093E80D871710F01092E80D84EF9DE00E94F13880E023
S284005800DF91CF910895EF92FF920F931F9301E010E0A5E2EA2EF3E0FF2E2DC01E9DC0011124E091F20DF091F30DE80FF91F8781882301F180858130E9F481858230D1F483819481A581B6818A309105A105B10548F00A97A109B10983839483A583B68300E008C0F186138214821582168283E00E945F381F5F8091ED0D181778F2002356
S28400588021F082E09EE00E94C6381F910F91FF90EF90089582E09EE00E94C63884EF9DE00E94C63883E00E945F380895FC0182818130C9F081E082838381815083838091E60D8F5F8093E60D815084878091E50D8F5F8093E50DCF0104960E94F75782E09EE00E94F13808950F931F93CF93DF930E942A38843019F410E005E229C00E9468
S2840059002A388530C9F329C0109FE0011124E091F20DF091F30DEC0FFD1F87818823B9F080858130A1F481858250823080F48081918163EA40E050E00E94B42A8091F20D9091F30D8C0F9D1F4A960E943D2A1F5F8091ED0D1817C0F236C00E942A38833091F510E005E22BC0109FE0011124E091F20DF091F30DEC0FFD1F87818823F1F093
S28400598080858130D9F481858330C1F48285882329F0CF0107960E94562C10C08081918167EA7E96AF010E94B42A8091F20D9091F30D8C0F9D1F4A960E943D2A1F5F8091ED0D181788F2DF91CF911F910F910895A0E0B0E0EEEEFCE20C94BDE16C01FC01C085D185E090ED0DA091F20DB091F30DFF2400E010E065C017968C91179788235A
S284005A0009F45BC018968C911897813009F055C019968C911997823009F04FC051966C91519752967C9152974D915C911197F60125813681FA018381948128173907E9F5FB019F8187819817C1F52C813D81848195812817390789F52A813B81828193812817390751F599818681981731F59E818181981711F588818370823021F45E96E6
S284005A80CA0160E00DC01A968C911A97882329F0CD0107960E94562C17C05E96CA0161EBAD010E94B42A8091F20D9091F30D800F911F4A960E943D2A07C0F3940B5D1F4F9596FE1408F498CFCDB7DEB7E8E00C94D9E12091E50D2F5F2093E50D0E94F7570895CF93DF93EC01DB0182E01D968C931D978B819C811F969C938E931E978B89B1
S284005B00885F50968C9350978C899D89089752969C938E9351978091E60D53968C9353978F5F8093E60D8F8954968C93549755961C92559781E056968C93569757961C9257978DE794E359969C938E9358975196ED91FC9152972081822F8C7F80838B819C81207F875F9F4F08F0286020832081922F9F7D90838E8982FD03C02F792083AE
S284005B800BC09064908381E019968C9319978091100E1A968C931A9780818F7780838D85818388899989938382838E859F85958384838A8986838091E70D87838F5F8093E70DCD010B960E94692D80E0DF91CF910895A1E0B0E0EFEEFDE20C94BEE17C018B018091E60DDB0153968C9353978F5F8093E60DF701878954968C935497DD2410
S284005C00D3945696DC92569757961C9257978DE794E359969C938E935897838950968C9350978489958952969C938E93519783E2BE016F5F7F4F0E94DA0E89818823D9F582E0D8011D968C931D978DEF9FEF1F969C938E931E9750968C915097875F50968C9350975196ED91FC91529739975296FC93EE93519755961C92D70113968D91BB
S284005C809C9114979283818350968D919C915197948383831E968D919C911F979683858352968C9187838091E70D80878F5F8093E70D83E035C0F801D586D70113968D919C9114979787868753968C915397885F808B5496ED91FC9155973897D8015296FC93EE9351978091A51555968C938FEF8183D70150968D919C9151979383828396
S284005D001E968D919C911F979583848352968C9186838091E70D87838F5F8093E70D80E0D8015196ED91FC915297880F880F8083C8010B960E94692D80E02196E7E00C94DAE10F931F93CF93DF938C01C0E0D0E014C0EB81FC818081882379F08A8180FD0CC021813281F801808D918D2817390721F4ED81FE81C8010995CE010E94B690D5
S284005D80EC01009731F7DF91CF911F910F910895A7E2B0E0EEECFEE20C94BCE18C01B62EDC011D968C91882329F18F3F19F10E9436906C01009769F0DC011396ED91FC91149721813281F801868597852817390741F0D80156968C9182FF10C087EAE82E06C0F601828180FF09C0B1EBEB2EFF24F39406C0EE24CC24DD2401C0EE24FF2464
S284005E00BB2031F0C8016E2D40E050E00E94B42AFF2009F06BC0D80112968C911297898315968C9115978C8316968C9116978D8317968C9117978E8318968C9118978F8319968C91199788871A968C911A9789871B968C911B978A871C968C911C978B871D968C918C8787E1BE01605F7F4F0E94DA0E82E08D8780916D1590916E159F8707
S284005E808E87F8018289888F868597859A8F898F808991899C8F8B8F83898D8F848995899F8F8E8F8FEA89A38FEF8AA31BA21CA21DA21EA28FA38C85882329F4CE0101960E94192713C0D8011D968C919E012F5F3F4F8F3F21F4C9010E94A12E07C0D6011596ED91FC911697C90109958E2DA796E9E00C94D8E10F931F93CF93DF930AC098
S284005F0088E492E00E94D679CE0163EA40E050E00E94B42A88E492E00E94CE79EC01009779F731C080E592E0BE010E94EB792091F20D3091F30DCE01821B930B65E270E00E946AE18091ED0D6817F0F4619FF0011124E20FF31F808191816085613051F0613018F0623081F40AC0AE014C5F5F4F6A8103C067EA40E050E00E94B42ACE01A9
S284005F800E943D2A01C015E280E592E00E94CE79EC01009739F610E005E225C0109FC0011124E091F20DF091F30DE80FF91F87818823C1F0808191812085213051F0213018F0223079F40AC06091020044E050E003C067EA40E050E00E94B42A80E090E00E943D2A1F5F8091ED0D1817B8F2DF91CF911F910F910895AAE0B0E0E2E0F0E3A5
S2840060000C94B7E183E00E943F38782E0E942A388450823008F4DBC00E94FD509A838983F3E08F2E912C8C0E9D1EE2E06E2E5E010894A11CB11CB8C0772019F473EAF72EA9C0F801868983FD2BC080FD29C081FD27C082958F7021F58289882329F00E943690892B09F4C7C0F8012281223031F483819481885F9F4F18F406C0213021F4EA
S284006080F801868982FDB7C0822F8250823008F0A6C0F8018585815F8E3008F4ACC09FC06AEAF62E77C080E00E94A1297C015FE7C52E56E3D52EA2C080E00E94A1297C0149EEC42E4DE2D42E99C087E1B4010E94DA0E9B81F80185819817F1F49C8186819817D1F49D8187819817B1F49E818085981791F49F818185981771F498858285B9
S284006100981751F499858385981731F49A858485981711F4F5010AC0C80105960E942353FC01009719F439EAF32E34C080819181F801948383836282F8012381348189819A812817390749F488E492E00E94D679C80161E00E94C82E27C0F801868982FD02C080E001C081E00E94A1297C0121E7C22E2DE2D22E42C088E492E00E94D67917
S284006180F70111830083C801B701F6010995F82E882351F088E492E00E94D679C8016F2D40E050E00E94B42A88E492E00E94CE798C01009709F040CF25C088E492E00E94D679C80163EA40E050E00E94B42A88E492E00E94CE798C01009779F713C0213009F46ACF213008F45ECF223009F4A4CF233009F46ACF96EAF92ECCCFE114F1042C
S28400620009F0BACF2A96EEE00C94D3E1EF92FF920F931F93CF93DF93EC0189819A8160E070E00E9491378C01009759F11B8660E00E94C337E82EFF2422C0C8016F2D0E94D637FC0180810E943690DC010097B1F012968C91129780FD11C01396ED91FC91149721813281888D998D2817390731F41596ED91FC911697CE010995F394FE1422
S284006280E0F2CDB7DEB7E6E00C94DBE1A7E2B0E0ECE4F1E30C94BEE18C01FC01E084F18485819681F701608541E00E94B82B882309F057C081E08983F701818192819B838A83A2E0DA2EDD86F801858196810E94EC52FC01009799F083E08D878081888B8181898B82818A8B83818B8B84818C8B85818D8B86818E8B87818F8B01C0DD86BA
S284006300F801858196819F878E87F7018781888F858196819A8F898F838194819C8F8B8FF8012781822F89508D8F18A230E0281B310980859185820F931F9F8F8E8F8FEA89A382858AA384859585A685B7858BA39CA3ADA3BEA383858FA3CE0101960E94063181E0A796E7E00C94DAE1A0E0B0E0ECEBF1E30C94BDE17C01C62EFC01008517
S2840063801185F801808186FFDCC08370813019F0B7E0DB2E02C0DD24D3945091ED0DA091F20DB091F30D40E06D2D70E0E801C60FD71F21C017968C9117978130D1F418968C9118978230A9F4F701258136811E968D919C911F972817390759F45196ED91FC915297E60FF71F98818081981709F4A6C04F5F95964517E8F2A9C0F701858170
S28400640096810E94EF69FC01009749F0828D80FF06C0E989FA89779780818260808319821882A989BA8982E08D87F701858196819F878E878091E60D8F5F8093E60D81508B8B1C8A1D8A81E08E8B1F8A8DE794E3998F888F8C91CC2019F48C7F826001C083608C93F80190819C708C91837F892B8C93908190718F7E892B982F9F799C9364
S284006480908190788F71892B8C9380812D2D30E084FF0BC0F70180859185820F931FFC01808111968C9382E02CC088E0888BF801868111968C9311978281938113969C938E9312978481958115969C938E931497818116968C931697F70180859185820F931FFC01808117968C931797F801808187FF21C08085837031F418961C928889F4
S2840065008F5F888B18C088898D5F888BF8018085837018968C9318978FEF1A968C931A9780858370813019F419961C9204C0F801818519968C93CE010B960E94692D81E001C080E0CDB7DEB7E8E00C94D9E182E00E94A129EC01009709F050CFF2CFA7E2B0E0E5EBF2E30C94BDE17C01DC0118960D911C911997F8019181892F81508E3F2E
S28400658018F0CC24DD2404C0892F0E9436906C01D80111968C9181508E3F20F4C114D10421F4F2C0C114D10471F0D6011396ED91FC91149721813281F801848195812817390709F0E1C0D8019C91892F869586958370823011F496FDD7C0F80120812295269526952170213049F4D70115968D919C911697885F9F4F08F0C6C0F801808153
S28400660087FDC2C0213061F4D60112968C9180FDBBC0C70160E00E94B631882309F4B4C0F70185819681D80117966C9141E00E94B82B882309F0A8C0F801818181508E3F20F4C114D10409F49FC0D70112968C91129713962D913C911497813009F082E089833B832A83F80181818C87D70115968D919C9116970E94EC52FC01009799F0FD
S28400668083E08D878081888B8181898B82818A8B83818B8B84818C8B85818D8B86818E8B87818F8B02C082E08D87F701858196819F878E87D80116968C911697888F14968D919C9115979A8F898F12968D919C9113979C8F8B8F27812A502D8F265F18A28C9187FD04C028502D8F285F09C082EA88A3F8018085837019F429502D8F275F3E
S28400670030E08D8D281B3109D70118968D919C911997820F931F9F8F8E8F8FEA89A31A968C911A978AA31C968D919D910D90BC91A02D8BA39CA3ADA3BEA3F70183858FA3C114D10449F0D6011596ED91FC911697CE010196099518C0F7018281813029F4CE0101960E9406310FC0D80111968C919E012F5F3F4F8F3F21F4C9010E94A12EC3
S28400678003C0C9010E941927A796E8E00C94D9E1FC01A085B1858C91282F269526952370213029F185FF25C022C083708230F9F02230E9F02330D9F08281813069F08230B1F48C91837090E0009721F00297029770F40AC0233021F0CF010E94AF3207C0CF010E94463103C0CF010E94E82C81E0089586FFE1CFD9CFFC010097A9F08081C1
S28400680091810E94EF69DC01009781F05A968C915A9780FD09C03091EA0DE091EB0DF091EC0D20E090E00BC0A0E0B0E060E00BC0808180FD02C081FD9F5F2F5FB3962317B8F3632F691B5091F00D8091ED0D90E04091F10D252F30E0240F311D281739075CF48091EE0D581738F4AB2B19F080E0623018F081E0089580E008950F931F93B4
S284006880CF93DF930BC00E942A38182F8CE492E00E94D679812F8450823010F401E021C0133031F0E885F985808183708130C9F4E885F985E081E295E695E695E17041F0E13051F4CE0105960E94FC33882321F0CE010E94C833082F002319F0CE010E94A62A8CE492E00E94CE79EC01009759F6DF91CF911F910F910895BC018091E50D76
S28400690081508093E50D80E592E00E94BF7983E00E945F380895BC018CE492E00E94BF7983E00E945F388091E90D8F5F8093E90D0895BC0188E492E00E94BF7983E00E945F380895A2E0B0E0E8EAF4E30C94B4E17C018B0180E1BE016F5F7F4F0E94CF0CE981FA813080418052806380748085809680C780A5E0AA2EB12CAE0CBF1CF8EAB0
S284006980DF2ED80192968D919C91939794966C910E940390F80184A38F3F09F4B2C0A2A1B3A1282F30E0C901880F991F820F931F880F991F880F991FA80FB91FFD013E961E968C91D70115968C931597818116968C931697828117968C931797838118968C931897848119968C93199785811A968C931A9786811B968C931B9787811C961B
S284006A008C93D8019296ED91FC91939794962C91949730E0C901880F991F820F931F880F991F880F991FE80FF91F8689F70185871183008392960D90BC91A02DF80124A130E0C901880F991F820F931F880F991F880F991FA80FB91F1B968C911B97833009F03FC0FD013E961E968C91831531F58181841519F58281851501F583818615CA
S284006A80E9F484818715D1F485818815B9F486818915A1F487818C1589F4C70160E00E94C82ED82E90E0882309F491E0D80194968C9194978F5F94968C9319C0C5010E942353FC01009719F489EAD82E0FC080819181F70194838383C701B8010E94712D04C0C701B8010E94E92DD82E91E0D80194968C9194978F5F94968C93992309F4B5
S284006B0040CF8D2D2296E1E10C94D0E1A1E0B0E0ECE8F5E30C94B3E10E942A38882E882309F4CDC082E0881609F4C9C080E592E00E94CE791C010E94187A5C0195E2492E982D9450998381E0682E712CB2E05B2EB2C0E091F20DF091F30DC1018E1B9F0B65E270E00E946AE18091ED0D681708F092C0649D60011124EC0DFD1DE080F180FB
S284006B80E085E13069F1E13020F0E23009F083C07AC0E981E23048F1F3E08F1609F07BC080E592E0B1010E94EB79F7018281882381F4F1018281882361F46091F20D7091F30D6C0D7D1DC7010E94A234883A09F062C0A1014C5F5F4FC701F101628150C0F1019280F981F23058F480E592E0B1010E94EB79A1014C5F5F4FC70163EA40C0C3
S284006C0083E0881609F047C080E592E0B1010E94EB790091F20D1091F30D0C0D1D1DF80181858130C1F5992031F56091100E70E02285621B7109C30102C0880F991F6A95E2F7BC01882777FD8095982F2091110E3091120E4091130E5091140E0E944BE1F8016383748385839683518682E09EE00E94F13810C0A1014C5F5F4FC701692D3A
S284006C800E94B42A05C080E592E0B1010E94EB79C1010E943D2AA114B10419F43A2D2B2D05C0C5010E94187A382F292F1501832F922F9C0159012114310409F04ACF2196E2E10C94CFE10E9486350E943E340E94FC2F0E94742C0E942A38843021F48091E50D882339F08091E40D882339F01092E40D089583E00E94FD90F5CF0895ADE0CC
S284006D00B0E0E5E8F6E30C94BFE18C017B0180E1BE016F5F7F4F0E94CF0CE981FA8180818B8381818C8382818D8383818E8384818F83858188878681898787818A87F80182898B87808991899D878C87CE0103960E94A28FF70193A382A3892B11F418EA09C0F70114A2C801B7010E94A234182F882319F0C7010E943D2A812F2D96E6E09F
S284006D800C94DBE1A1E0B0E0E8ECF6E30C94C1E19091190EE091E20DF091E30D80E006C013821482158216828F5F37968917C0F31092E60D1092E70D1092E40D88E492E00E94B9798CE492E00E94B97980E592E00E94B97984E592E00E94B9798AE06AEE7DE00E94DA0E84E06BEE7DE00E94CF0C20E043E250E014C0822F90E0BC01649FC1
S284006E00C001659F900D749F900D1124E091EB0DF091EC0DE80FF91F80818E7F80832F5F8091EA0D281740F388E06DEE7DE00E94DA0E83E062EF7DE00E94CF0C9091ED0DE091F20DF091F30D80E003C017828F5FB5968917D8F38091EA0D8093EE0D91509093EF0D1092F00D1092F10D83E08093100E8BE161E17EE00E94DA0E2091110EC8
S284006E803091120E4091130E5091140EDA01C901880F991FAA1FBB1F820F931FA41FB51F8093150E9093160EA093170EB093180E8AE169E17EE00E94DA0E87E062EE7DE00E94CF0C4091190E8091E20D9091E30D60E070E050E00E94A50989E1BE016F5F7F4F0E94DA0E84EF9DE060E02AE030E040E050E004ED1AE20E94CF3882E09EE062
S284006F0060E02AE030E040E050E003E01CE20E94CF381092E50D1092E90D2196E4E00C94DDE1CF93DF93EC01DB01E0911E0EF0911F0E60911A0E20911C0E30911D0E220F331F220F331F40E05FEF12C08081882349F0818192818C179D0739F4109779F04C930DC05F3F09F4542FE20FF31F4F5F461760F3109709F05C93E0E0F0E0CF012D
S284006F80DF91CF91089540911B0E20E009C0FC01E20FF11D3381631739F0332319F02F5F2417A8F361112FEF822F0895DC01009799F08C91882381F080911B0E681760F470E0FD01E60FF71F8381882329F06D5F7F4F6A0F7B1F02C060E070E0CB01089508951F93182F8DE16BE17EE00E94DA0E8EE16AE17EE00E94DA0E89E06EE17EE0AC
S2840070000E94CF0C80911B0E482F50E04D5F5F4F50931D0E40931C0E112399F480911A0E90E0489F9001499F300D589F300D112480911E0E90911F0E60E070E0A9010E94A5091F9108959091200E9093210E8093200E08958091200E08958091210E08959091200E813031F49093210E83E08093200E08959093210E1092200E0895282F70
S2840070809091200E923069F0933018F4992331F012C0933091F0953071F408C0813059F40CC0813051F0843031F407C080E0213029F481E0089580E0089581E00895482F3091220E332361F42FB7F8948091E00D9091E10D80629093E10D8093E00D2FBF81E090E002C0880F991F4A95E2F7382B3093220E08951092220E0895A2E0B0E0C9
S284007100E4E8F8E30C94C3E14091220E4423D1F160E0242F30E001C06F5FC901062E02C0959587950A94E2F780FFF6CF81E090E0062E02C0880F991F0A94E2F7809584238093220E70E0660F771F6352794FCE01019642E050E00E9468098091220E882361F02FB7F8948091E00D9091E10D80629093E10D8093E00D2FBFE981FA8130978A
S28400718009F009952296E2E00C94DFE1FC018081813021F41192CF010E947C1308959F92AF92BF92CF92DF92EF92FF920F931F937C01962E59016A010E94C638F70110829386A782B086C186D286158704871F910F91FF90EF90DF90CF90BF90AF909F900895FC018081882329F481E08193CF010E94E7130895A2E0B0E0E1E0F9E30C9492
S284007200C1E11FB7F8941092230ECE0101960E94CF98882341F08091240E823021F41092240E51E001C050E0498121E030E0042E02C0220F331F0A94E2F7209530958091960E9091970E822393239093970E8093960E1FBF552309F0C3C081E08093240E4830D1F588E592E00E94CE798C0188E592E00E94D679F80182818230D1F0833052
S28400728030F4882351F0813009F04BC00CC08330B1F0843009F045C018C0C8010E94D23D982F83E017C0C8010E943D3D982F84E011C0C8010E94653C982F85E00BC0C8010E942F96982F86E005C0C8010E94C13A982F87E0898322C04330A1F0443028F4442351F04130E9F40AC0453089F0453060F04630B1F40FC00E94D53B0EC00E9404
S284007300463B0BC00E94813D08C00E94253D05C00E944E3C02C00E941B96982F992309F048C0CE0102960E94CF988823B9F49FB7F8948091230E882379F48FB7F8942091E00D3091E10D21603093E10D2093E00D8FBF81E08093230E9FBF42C088E592E00E94CE79892B11F14FB7F8948091960E9091970E91609093970E8093960E9FB76D
S284007380F8948091230E882379F48FB7F8942091E00D3091E10D21603093E10D2093E00D8FBF81E08093230E9FBF19C01092240E17C09130A9F44FB7F89421E030E0098002C0220F331F0A94E2F78091960E9091970E822B932B9093970E8093960E4FBF2296E4E00C94DDE1A1E0B0E0EAEFF9E30C94C2E188E592E00E94B9790E94643A4D
S2840074001FB7F894CE0101960E94CF98882321F482E08093240E02C01092240E1092970E1092960E1FBF2196E3E00C94DEE1BC0188E592E00E94BF798091240E882311F54FB7F8948091960E9091970E91609093970E8093960E9FB7F8948091230E882379F48FB7F8942091E00D3091E10D21603093E10D2093E00D8FBF81E08093230EEE
S2840074809FBF4FBF0895FC0184E08283CF010E94173A0895FC0183E08283CF010E94173A0895FC0182E08283CF010E94173A0895FC0181E08283CF010E94173A0895FC0112820E94173A0895A9E0B0E0EAE6FAE30C94C1E10E94E3760E94153B0E942C960E94FB3B0E94223D0E94603D8EE489838091D8168A838E010F5F1F4FC8010E947A
S284007500537880E589838091DB169091DC169B838A83C8010E94537883E589838091E0169091E1169B838A83C8010E9453788FE489838091DA168A83C8010E94537889E589831A82C8010E9453788FE68983E4EEF6E18091E4168A8381818B8382818C8383818D8384818E8385818F838681888787818987C8010E9453782996E4E00C9424
S284007580DDE1FC0114821382258136810396F901099580E008952091BB163091BC162F5F3F4FC90108954FB7F894E091BB16F091BC16808190E001968E0F9F1F9093BC168093BB1610822091BB163091BC168091BD169091BE1628173907A1F48091B9169091BA169093BE168093BD168091B5169091B6169093BA168093B9169093BC1645
S2840076008093BB164FBF0895E091BB16F091BC168091B7169091B816E817F90711F480E008958081811181E00895A2E0B0E0EBE1FBE30C94C3E188E065EB76E10E94CF0C8CE1BE016F5F7F4F0E94DA0E8091B5169091B6169093BA168093B9169093BC168093BB169093BE168093BD1629813A81820F931F9093C0168093BF161092B81657
