S011000053657269616C4E65742E737265638C
S2840000000C948D070C94D3070C94D3070C94D3070C94D3070C94DF220C9409DF0C94C5E10C9496E10C94D3070C94D3070C94D3070C94D3070C94A8170C94D3070C940C180C94D3070C94D3070C94D3070C94D3070C94D3070C94D3070C94D3070C94D3070C94D3070C94A0230C9400240C94D2230C94D3070C94A0240C9430190C94D3070D
S2840000800C94D3070C94D3070C94D3070C94D3070C9412230C9472230C9444230C942E240C94D3070C94D3070C94FB180C9431DF0C94D3070C94D3070C94D3070C94D3070C94D3070C94D3070C94D307500D3B0D3E0D410D440D470D4A0D4D0D530D560D590D5C0D5F0D620D650D680D6B0D700D0E0E340F780E280F1D0F340F340F340F75
S284000100340F340F340F340F340F340F340F340F9B0E970E340F9F0E400E270EEA0DF10DF80DFC0D620E6F0EA30E050E340F340F340FB00E590E930EBD0EC50ECE0E340F340F340F340F340F8B0E8F0EE70EEE0EF20EF90E020FD80E0A0F120F160F340F340FDF0EBE0FC90FCC0F041044105210F80FF80FFC0F6B0FC70F4010760F760F91
S2840001804010760F780F7B0FC70F7E0F810F990F4F0F540F5B0F0D10B20FBB0F620F480FC70F3E103E106D0F5F0FDB0FDE0FE30FE90FF80FF80FFA0F4010FC0FFE0F0110131017101A101F102810F00F2E10341037103E104010F50F42104A10B542E542E542E542BA42CF42C442C942EA42BF42D442D442D942E542234326432943294374
S2840002002C4338433243354348432F433B433E434143444357445B447D445F4463447D4467447D446E4472447A44294A0B4B1E4B9B49AA4BAA4B194B1E4B214B7B4B4E4BAA4BAA4B7B4B004A804B196E216E2A6E386E3A6E3A6E576E576E9E76A37674778C77A3779478C7786B796B796B796B796B796B796B796B796B7966784E786B796C
S2840002808D7670785F779679FA79347A1C7A0F7A347A4A7A7E7A7E7A7E7A7E7A7E7A7E7A7E7A7E7A7E7A1C7A347A7E7A8979257A097A5B8DC18CCE8DCE8DCE8DC78CCC8C728DCE8DCF8CD28CEB8CF08CCE8DF38CF68CF98CCE8DFE8C018D728D068D4F8D648DCE8D528D558DC58C588D588D728D728D728D728D728D728D728D728D728D87
S284000300728D728D728D728D728D728D728D728D358D728DCE8DCE8DCE8DCE8DCE8DCE8DCE8DCE8DCE8DCE8DCE8DCE8DCE8DCE8D728D678D6A8D2D8F0F8E2F8F2F8F2F8F148E1C8E2F8F2F8F248E298E438E4B8E2F8F508E588E628E2F8F6A8E6F8E2F8F778E9F8EB18E2F8FA48EAC8E2D8F2D8F2D8FBB8EBB8EBB8EBB8EBB8EBB8EBB8EBC
S284000380BB8EBB8EBB8EBB8EBB8EBB8EBB8EBB8EBB8EBB8E858EBB8E2F8F2F8F2F8F2F8F2F8F2F8F2F8F2F8F2F8F2F8F2F8F2F8F2F8F2F8FBB8EB68E2D8F71906F906F909E90A590B890C090C390C690C990CC90DB91E291F191F991FB91FD91FF9102926AA35EA3FFA2ADA3ADA346A353A3ADA3ADA3ADA372A381A31FA32BA3ADA3FCA2BF
S2840004003FAF4CAF70AF82AF89AF96AFA2AFADAFB5AFC9AFD6C3A7C4E0C331C6F5C5D0C3A7C4A7C4A7C4B3C7F7C300C4A5C752C48AC472C47CC43FC63FC620C5A7C4A7C4EAC6EAC6EAC6A7C4EAC6E3C6E3C68EC6A7C4A7C4A7C481C4CFC7D4C7D9C6DDC6BDC5CBC5E7C5D9C571C58CC567C556C574C7A7C4A4C5ACC5B5C5A7C4D6C3A7C4AC
S284000480E0C3F7C3A9C400C400C452C47CC472C467C5A7C4A7C420C58AC42DC5A7C4A7C4A7C4A7C441C541C541C541C541C541C541C541C541C54FC54FC54FC54FC54FC54FC54FC54FC54FC5AEC4AEC4AEC4E1C4E1C4E1C4FCC4FCC4FCC471DB79DB8ADB85DD85DD85DD21DC86DC35DD85DD8EDB91DB85DDADDB0ADCB7DBBBDB85DD85DD48
S28400050001DB05DCCADB85DD85DD85DD85DD85DD85DD85DD85DD15DC18DC1BDC0EDC85DD71DD85DD85DDF2DAF8DAF5DAFBDA43DB5ADB85DD85DD85DDE3DAE6DAE9DAEFDA75DB71DB79DB8ADB8EDBFEDAA3DBA8DBADDBBBDBB7DBC6DBCADB05DC01DB0ADC2FDB32DB32DB32DB32DB1DDB1DDB1DDB1DDB1DDB1DDB1DDB1DDB1DDB26DB26DBDE
S28400058026DB26DB26DB26DB26DB26DB26DB06DB06DB06DB0BDB0BDB0BDB14DB14DB14DBA9DD86DEABDD86DE86DE86DE86DE86DE86DE51DEA1DDB8DD86DEC4DD43DED3DDDADD43DE43DEE1DD86DE86DE33DE3BDE48DE86DE43DE86DE86DE30DE86DE86DE86DE40DE86DE80DE86DE86DEA1DDA1DDA1DD2DDE13DE0DDEA1DDF9DD06DE86DEF0
S284000600A4DDA4DDA4DD86DEA9DD86DEABDDA1DDA1DDB8DDB8DDC4DDDADDD3DDA1DD86DE86DEE1DD43DEF6DD86DE86DE86DE86DEE8DDE8DDE8DDE8DDE8DDE8DDE8DDE8DDE8DDA1DDA1DDA1DDA1DDA1DDA1DDA1DDA1DDA1DDE8DDE8DDE8DDECDDECDDECDDF1DDF1DDF1DD000400150C001A14001B18001D1900221A00021B00251C00261D5E
S28400068000311E00332F003031003233002334001635001937002E3800173900183B00143C002F440000FFFF0145001053010872016E1FA61EAA1E6A1FC31EC71E0304050607BB8A86870000693BE63B02020302010101010101010202010102020202010202020201020303020158AEE86AD497B96C8AB182B262B9F4AD245BB49B80A4CD
S2840007003A618CA9C19AE156C161007EAC9FAD049B696769079B6967690786A027A407AE60D85C07AE60886004DFA716A90767A7C3A807000000000400000000074EB428B40183B7BBB00283B7BBB00700000000070000D166060000D1660400000000060000265704000026570000000002400305000000010864000C0164000000FFFFD3
S284000780FFFFFFFFFFFFE803000002B76BB56FBA05A70000635F03A250AA00000000806DF86BD9560F66F6A0669BA05B58B900000D9AB8A6A06A0C5539B9EBB338B0A7ADE5AD495CB99A0000000000005D6964BAC597429A0000B161010100000D000000000000000000000000000000020102000A00000000000000000000000000000057
S28400080003010400080000000000000000000000000000000401060001000000000000000000000000000000050108000000000000000000000000000000000006010A000100000000000000000000000000000007010C000100000000000000000000000000000008010E00030000000000000000000000000000000901100000000000EE
S2840008800000000000000000000000000A011200000000000000000000000000000000000B021400881300000000000000000000000000000C011700000000000000000000000000000000000D041900000000000000000000000000000000000E012F00000000000000000000000000000000000F0131000200000000000000000000004B
S28400090000000000100133000200000000000000000000000000000011013500020000000000000000000000000000001201370002000000000000000000000000000000130139000200000000000000000000000000000014013B000200000000000000000000000000000015013D000200000000000000000000000000000016013F004B
S284000980020000000000000000000000000000001701410002000000000000000000000000000000180444000000000000000000000000000000000019044900640000000000000000000000000000001A044E00000000000000000000000000000000002500052500062500073400003400013400022B00062B00072E00032B5750414EEA
S284000A004944002B574348414E002B5743484D41534B002B574C45415645002B574A4F494E002B574E574B002B57504152454E54002B574348494C4452454E002B574E4253495A45002B574E42002B574155544F4E4554002B57505752002B57534C454550002B57524F4C45002B57535243002B5753594E43505244002B57545850575284
S284000A80002B574C5149002B5752535349002B5754494D454F5554002B575245545259002B57574149540044004455004453004452002B5750494E470026480025480049002B474D49002B474D4D002B474D52002B47534E002B5743414C494252415445002B574143414C494252415445005A0026460045005100560058002B49505200C5
S284000B002B494643002644002B5750415353574F5244005200533000533300533400533500533230005332310053323200533233005332340053333000533331005333320053333300533334005333370053353000533531005335320053353300533535005331303000533130310053313032005331303300533130340053313230005368
S284000B80313231005331323200533132330053313234005331323500533132360053313237005331323800533133300053313331005331333200533133330053313334005331333500533133360053313337005331333800533134300053313431005331343200533134330053313434005331343500533134360053313437005331343860
S284000C000000FB0902050000E001030A0306000020000A0A04040000E001130A0500000010001B0A060000001000220A070000001000280A080000002000310A0900000020003C0A0A0000002000450A0B2E000010014A0A0C060000E001540A0D090000E0025A0A0E0000001000620A0F060000E001690A10030000E0016F0A1101000066
S284000C80E001790A12020000E001810A130300001001870A1403000010018E0A170100002001980A160600002001A00A15010000E001AC0A1A5900001002A90A190100001000B20A1C0300001001A70A184B00001001EE0A260000001000F00A270000001000F30A280600001000F50A290600001000F70A2A0600001000F90A2B06000064
S284000D001000FB0A2C010000E001000B2D360000E003050B2E0600001001B90A1D0000001000BC0A1E0000001000BF0A1F0600001000C10A200700002000C60A210700002000CB0A220700002000D00A230500006001D50A240000001000E10A25010000E001080B2F0400001001130B30E301001007150B310600002001180B32010000A5
S284000D8060011B0B3301000060011E0B340100006001210B350500002001250B360500006001290B3706000020012D0B380400006001310B390600006001350B3A0600006001390B3B01000060013D0B3C0100006001410B3D0600006001450B3E0200006001490B3F01000060014D0B400600006001510B410100002001550B4206000099
S284000E002001590B4301000060015D0B440300006001610B450600006001660B4601000020016B0B470100002001700B480100002001750B4901000020017A0B4A06000060017F0B4B0600006001840B4C0600006001890B4D06000060018E0B4E0600006001930B4F0600006001980B5006000060019D0B510600006001A20B5206000036
S284000E806001A70B530600006001AC0B540600006001B10B550600006001B60B560600006001BB0B570600006001C00B580600006001C50B590600006001CA0B5A0600006001CF0B5B0600006001D40B5C0600006001D90B5D0600006001DE0B5E0600006001E30B5F0100006001E80B600100006001ED0B610100006001F20B6201000071
S284000F006001F70B630100006001FC0B640100006001010C00000000000011248091B81C823141F084B78F718093B81C80FF05C081E001C081E18093B81C14BE809160008861809360001092600011241FBECFEFD1E2DEBFCDBF13E0A0E0B2E0E6E2F9EC01E00BBF02C007900D92A038B107D9F71CE1A0E8B3E001C01D92A83BB107E1F79E
S284000F800E9489DE0E9440262FB7F8948091F90D9091FA0D80619093FA0D8093F90D2FBF0E94B826FDCF0C9400007F937FB7F8949D9AA5988AEF0E9434088AEF0E9434089D9886E40E94340881E0959980E08F9380EF0E9434088F917FBF7F9108957F937FB7F8949D9AA59886E00E9434089D988AE00E943408889495990894881F8F9398
S28400100084E60E9434088F917FBF7F9108959F937F9398E00E94EF07879577959A959923C9F7872F7F919F9108957F937FB7F894A5989D9A8F9386E00E9434088F91879508F49D988F9384E60E9434088F919D987FBF7F9108959F9398E00E9415089A959923D9F79F91089500000000000000008A958823C9F708955F937F937FB7F894BB
S284001080CF93DF93C0E0D0E07F935091B2007091B2007517E1F3739521965091B2005717D9F77F91CE01DF91CF917FBF7F915F910895EF92FF920F93DF93CF93CDB7DEB760970FB6F894DEBF0FBECDBFA82F002309F461C07E010894E11CF11C88E0F70111928A95E9F729833A834B835C836D837E83AF83988780E2801BE82FFF27E7FD61
S284001100F0954D815E816F817885181684F01D861E861F86188A882799278E1B9F0B04C076956795579547958A95D2F728C0202F332727FD3095DB01CA01022E04C0B695A795979587950A94D2F78D879E87AF87B88B04C0440F551F661F771FEA95D2F789819A81AB81BC8104C0B695A795979587952A95D2F7482B592B6A2B7B2B498748
S2840011805A876B877C8729853A854B855C856D857E85AF8598898A2F60960FB6F894DEBF0FBECDBFCF91DF910F91FF90EF900895EF92FF920F93DF93CF93CDB7DEB760970FB6F894DEBF0FBECDBFA82F002309F461C07E010894E11CF11C88E0F70111928A95E9F729833A834B835C836D837E83AF83988780E2801BE82FFF27E7FDF09582
S28400120049815A816B817C81181684F019861A861B861C86882799278E1B9F0B04C0440F551F661F771F8A95D2F728C0202F332727FD3095DB01CA01022E04C0880F991FAA1FBB1F0A94D2F789879A87AB87BC8704C07695679557954795EA95D2F78D819E81AF81B88504C0880F991FAA1FBB1F2A95D2F7482B592B6A2B7B2B4D875E87B5
S2840012806F87788B29853A854B855C856D857E85AF8598898A2F60960FB6F894DEBF0FBECDBFCF91DF910F91FF90EF900895A0E0B0E0EDE5F9E00C943BE4EC01A880B980CA80DB80A114B104C104D10441F484E2A82E89EDB82E8BE5C82E87E0D82EC601B5012DE133EF41E050E00E9478E427EA31E440E050E00E94D2E37B018C01C601CD
S284001300B5012DE133EF41E050E00E9478E4CA01B9012CEE34EF4FEF5FEF0E94D2E36E0D7F1D801F911F97FF04C06150704080409048688379838A839B839B013F77C901CDB7DEB7EAE00C9457E40E94570908958CE793E00E9457090895A0E0B0E080937C0390937D03A0937E03B0937F030895FB01DC0102C005900D9241505040D8F7AB
S2840013800895FB01DC0105900D920020E1F70895FC0105900020E9F7809590958E0F9F1F0895FB01DC014150504030F08D910590801919F40020B9F7881B990B0895FB01DC0104C08D910190801921F441505040C8F7881B990B0895FB01DC0102C001900D9241505040D8F708956817790768F4FB01DC01E40FF51FA40FB51F02C0029092
S2840014000E9241505040D8F708950C94EC09DC0101C06D9341505040E0F70895FB01DC010D900020E9F7119701900D920020E1F70895FB01DC0101900D920020E1F70895FB01DC010D900020E9F711974150504028F0019000200D92C9F708951C920895FB01DC014150504048F001900D920020C9F701C01D9241505040E0F70895FB015F
S28400148051915523A9F0BF01DC014D9145174111E1F759F4CD010190002049F04D9140154111C9F3FB014111EFCF81E090E001970895AEE0B0E0EFE5FAE00C9441E40D891E8986E08C831A8309838FEF9FE79E838D839E01275E3F4FCE0101966F89788DA9010E947D0A2F813885020F131FF80110822E96E4E00C945DE4ABE0B0E0E3E888
S284001500FAE00C9433E43C012B015A01FC0117821682838181FD03C06FEF7FEFC6C19AE0892E1E010894211C311CF3012381F20123FD859123FF81912F01882309F4B2C1853239F423FD859123FF81912F01853229F490E0B3010E94700CE7CF982FFF24EE249924FFE1FF15D0F09B3269F09C3228F4903259F0933291F40EC09D3249F0A3
S284001580903369F441E024C052E0F52A84E0F82A28C098E0F92A25C0E0E1FE2A22C0F7FC29C0892F80538A3070F4F6FE05C0989C902C1124980E15C0E89CE02C1124E80EF0E2FF2A0EC09E3229F4F6FC6BC140E4F42A07C09C3619F450E8F52A02C0983649F4F20123FD959123FF91912F01992309F0B8CF892F8554833018F08052833084
S28400160038F444E050E0A40EB51E5FE359830FC0933631F0933779F0933509F056C020C0F5018081898342E050E0A40EB51E610101E010E012C0F501C080D180F6FC03C06FEF7FEF02C0692D70E042E050E0A40EB51EC6010E94650C8C015FE7F52214C0F501C080D180F6FC03C06FEF7FEF02C0692D70E042E050E0A40EB51EC6010E94B1
S2840016805A0C8C0150E8F52AF3FE07C01AC080E290E0B3010E94700CEA948E2D90E008171907A8F30EC0F601F7FC8591F7FE81916F0190E0B3010E94700CE110EA94015010400115110579F7EAC0943611F0993669F5F7FE08C0F501208131814281538184E090E00AC0F501808191819C01442737FD4095542F82E090E0A80EB91E9FE651
S284001700F92257FF09C050954095309521953F4F4F4F5F4FE0E8FE2ACA01B901A1012AE030E00E949C0CD82ED21840C0953729F41F2D1F7E2AE030E01DC01F2D197F9F3661F0903720F4983509F0ACC00FC0903739F0983709F0A6C004C028E030E00AC0106114FD146020E130E004C014FD166020E132E017FF08C0F5016081718182812E
S284001780938144E050E008C0F50180819181BC0180E090E042E050E0A40EB51EA1010E949C0CD82ED2188FE7F82EF122F6FE0BC05EEFF522D91438F4F4FE07C0F2FC05C08FEEF82202C01D2D01C0192DF4FE0DC0FE01ED0DF11D8081803319F499EEF92208C01F5FF2FE05C003C08F2D867809F01F5F0F2DF3FC14C0F0FE0FC01E1510F063
S2840018009D2C0BC09D2C9E0C911A1E2D06C080E290E0B3010E94700C1F5F1E15C0F304C01E1510F4E11A01C0EE2404FF0FC080E390E0B3010E94700C02FF1DC001FD03C088E790E00EC088E590E00BC0802F867891F001FF02C08BE201C080E2F7FC8DE290E0B3010E94700C06C080E390E0B3010E94700C9A94D914C0F3DA94F101ED0DAD
S284001880F11D808190E0B3010E94700CDD20A9F706C080E290E0B3010E94700CEA94EE20C1F743CEF30166817781CB012B96E2E10C944FE4FC010590615070400110D8F7809590958E0F9F1F0895FC016150704001900110D8F7809590958E0F9F1F08950F931F93CF93DF938C01EB018B8181FF1BC082FF0DC02E813F818C819D8128170B
S284001900390764F4E881F9810193F983E88306C0E885F985802F0995892B31F48E819F8101969F838E8302C00FEF1FEFC801DF91CF911F910F910895FA01AA27283051F1203181F1E8946F936E7F6E5F7F4F8F4F9F4FAF4FB1E03ED0B4E03CD0670F781F891F9A1FA11D680F791F8A1F911DA11D6A0F711D811D911DA11D20D009F46894C6
S2840019803F912AE0269F11243019305D3193DEF6CF010895462F4770405D4193B3E00FD0C9F7F6CF462F4F70405D4A3318F0495D31FD4052419302D0A9F7EACFB4E0A6959795879577956795BA95C9F700976105710508959B01AC010A2E06945795479537952795BA95C9F7620F731F841F951FA01D089508950E94D3BC089520E134E0F8
S284001A00309395032093940320E530E0309397032093960321EA33E030939903209398032FE630E030939B0320939A0310929D0310929C0310929F0310929E0360E0823009F461E080E893E00E94D6BC089580E090E00895089584E0089584E0089584E00895DB0190E082319105D0F58A599F4FFC010C946AE48BE794E02FC08BEB95E094
S284001A802CC08FE798E029C087ED99E026C083E69AE023C08BEB9AE020C087E99BE01DC080EB9BE01AC083E39CE017C087E39CE014C083E79CE011C081EE9CE00EC085E39DE00BC083E49DE008C089E895E005C080E794E002C08BE69DE08D939C9308951D921C9208951092600410926104109262041092630410926404109265041092FD
S284001B00660410926704109268041092690410926A0410926B0410926C0410926D0410926E0410926F048FEF9FEF909304028093030280E098E0A0E0B0E08093050290930602A0930702B09308021092700410927104109272041092730410927404109275041092760410927704E1E0F2E09291916088E08093010280910202807F1092B3
S284001B807804957990838068809302021092790484E392E190930A02809309028CE090E190930C0280930B0283E080930D0280930E0208950E94A5120895CF93DF93EB0190E08A33910508F04FC188589F4FFC010C946AE488819981909304028093030243C1888199819093100280930F023CC1888180937A0438C198819170990F990F73
S284001C00990F80910002877F59C098819370990F990F990F80910102877E66C08881809370048981809371048A81809372048B81809373048C81809374048D81809375048E81809376048F81809377040DC18881809368048981809369048A8180936A048B8180936B048C8180936C048D8180936D048E8180936E048F8180936F04F4C080
S284001C808881809360048981809361048A81809362048B81809363048C81809364048D81809365048E81809366048F8180936704DBC098819170809100028E7F892B80930002D2C088819981AA81BB818093050290930602A0930702B0930802C5C09881977080910102887F892B80930102BCC098819295990F907E809101028F71892B5B
S284001D008093010298819695969596959F7080910202807F99C0888180930D02A5C0888180930E02A1C08881809378049DC088818093110299C088818093120295C088818093130291C088819981AA81BB818093140290931502A0931602B093170284C088819981AA81BB818093180290931902A0931A02B0931B0277C09881917092959D
S284001D80907F809100028F7E99CF988191709295990F907E809100028F7D90CF988191709295990F990F907C809100028F7B86CF8881998190930C0280930B0255C09881979599279795809100028F7777CF98819170990F809100028D7F70CF88818093790442C08881998190930A02809309023BC0AAE8BDE0FB0181E101900D928150F6
S284001E00E1F732C098819170990F990F809100028B7F54CF9881979599279795809102028F7712C0888180931C021EC08881998190931E0280931D0217C0988197709295907F809102028F78892B809302020CC088819981AA81BB8180931F0290932002A0932102B0932202DF91CF910895CF93DF93EB016115710509F414C190E08C3361
S284001E80910508F00FC18E549F4FFC010C946AE48091010286958695869583700EC0809103029091040204C080910F029091100299838883F7C080917A048883F3C080910002CAC08091140290911502A0911602B0911702E3C083E0F0CF8091180290911902A0911A02B0911B02D8C084E0E5CF80911202E2CF80911102DFCF8091130229
S284001F00DCCF809160048883809161048983809162048A83809163048B83809164048C83809165048D83809166048E838091670417C080916804888380916904898380916A048A8380916B048B8380916C048C8380916D048D8380916E048E8380916F048F83A0C08091050290910602A0910702B091080293C0809101028AC0DB01E0E7C2
S284001F80F4E088E001900D928150E1F78BC085E094CF83E890E08CCF90910102929596959770809102028F70880F880F880F892B880F859582CF809178047FCF8091000282958F7049C08091000282958695877043C08091000282958695869583703CC080910B0290910C0263CF8091000238C08AE063CF87E061CF88E05FCF80910D0264
S2840020005CCF80910E0259CF80911F0290912002A0912102B091220241C08091000286958695869519C080910002869515C08091790443CF8091090290910A0239CFDB01EAE8FDE081E101900D928150E1F72AC0809100028695869581702FCF80910202881F8827881F29CF80911C0226CF80911D0290911E02A0E0B0E010C081E01DCFD3
S28400208082E01BCF18820EC08091020282958F70877013CF8EE090E0A8E0B1E088839983AA83BB83DF91CF91089502C00E94F2260E9460158823D1F70895A6E0B0E0E3E6F0E10C9439E48C010097E9F1E0902402F0902502FA82E98281E090E09E838D8348018AE0C82ED12CCE0CDF1C5E010894A11CB11C1FC08B829C820E945510C50122
S28400210060E070E00E94FE148F5F9F4F21F481E0F801838318C00E945510F801808129813A818F3F19F0328321830CC02F5F3F4F3A83298389819A818C159D05E0F2F801F282E18213822696ECE00C9455E4A7E0B0E0EDEAF0E10C943BE48C010097E1F11982FC01108284E090E09B838A8381E090E09F838E83E0902402F09025025E01C9
S2840021800894A11CB11C92E0C92ED12CCC0EDD1E1CC0BD82AC820E945510C60160E070E00E94FE148F5F9F4F21F481E0F801838313C00E945510F80180819981890F80838A819B8101969B838A838A819B818E159F05F8F2F80113822796EAE00C9457E4AFE0B0E0E6EFF0E10C9443E48FEF8983CE0102960E945D108D81813009F44CC0BF
S284002200CE0106960E94A7108985813009F444C09E818A81890F09F440C091959E838B819C819B878A87CE0101969D878C8781E090E09F878E870E945510CE010A9661E571E10E949A158F5F9F4F31F10E9455108A859B8501969B878A8740912402509125029A01265F3F4F8217930710F05B874A87CE0106969D878C870E945510CE0162
S2840022800A9661E571E10E949A158F5F9F4F21F00E94551080E001C081E02F96E2E00C945FE40895A6E0B0E0E8E5F1E10C9441E489012091240230912502265F3F4F280F391F3A8329835E834D837C836B8302C00E94F22680919B0D8130D1F30115110511F401E511E10E945510CE010196B8010E949A158F5F9F4F11F481E007C081E1D2
S2840023000135180711F40E94551080E02696E4E00C945DE4A6E0B0E0E0E9F1E10C9441E489012091240230912502265F3F4F280F391F3A8329835E834D837C836B8302C00E94F22680919B0D8130D1F30115110511F401E511E10E945510CE010196B8010E94FE148F5F9F4F11F481E007C081E10135180711F40E94551080E02696E4E095
S2840023800C945DE480919B0D882349F487E790E10E946D140E942C1402C00E94F22680919B0D8130D1F30895A5E1B0E0EAEDF1E10C943FE40E94730DFF248E010B5F1F4F8F2D0E94D212809186108823C9F480918410B8010E94370F10938A10009389100E94551087E890E161E571E10E949A158F5F9F4F09F454C00E945510F394E0CF03
S284002400C8016FEF70E04AE050E00E94070A10938A1000938910009124021091250210938810009387108AE090E090938C1080938B100E94551087E890E161E571E10E949A158F5F9F4F61F10E9455107E010894E11CF11CC7010E94A7108C81813001F18981819589831093881000938710F0928A10E092891081E090E090938C108093E9
S2840024808B100E94551087E890E161E571E10E949A158F5F9F4F21F00E94551080E001C081E06596E6E00C945BE4A1E1B0E0EBE5F2E10C943EE4109285100091230210E0DD24D3947E010894E11CF11C37C0812F0E94D21280918610882331F0D09285101F5F812F0E94D21280918510882329F4F0928A10E092891008C0813031F48091E6
S284002500841069E870E10E94310D0E94551087E890E160E070E00E94FE148F5F9F4F11F481E00FC00E94551080918510882329F480918410B7010E94DD0D1F5F101738F280E06196E7E00C945AE4A8E0B0E0EBEAF2E10C9443E4CE0105960E94A71088858130D9F0CE0101960E945D108C818130A1F089819D81890F41F40E945512813097
S28400258061F00E94241480E009C00E94D411813021F00E94241482E001C081E02896E2E00C945FE4A6E0B0E0E8EDF2E10C943DE4D82E082F10E07801EE0CFF1CE00EF11EB7016A59794FCE01019643E050E00E94B8098981809384102A813B813093881020938710882319F080E090E008C080E090E04FEF2F3F340711F481E090E0809339
S284002600861088E1D81619F486E791E027C034E0C32ED12CCC0EDD1EC8010196BC01660F771F680F791F6A59794FC60143E050E00E94B8098C81882369F48D819E818F5F9F4F41F4B7016459794FC60143E050E00E94B8098D819E812A813B81821B930B90938C1080938B102696E8E00C9459E4A3E0B0E0EEE3F3E10C943DE4CE010196F7
S28400268090938A1080938910E0908B10F0908C10C0908710D090881081E090E090938C1080938B1080918410BE016E5F7F4F0E94310D00E010E032C00E94551087E890E160E070E00E94FE140E9455102A813B81F901E00FF11F908189819817A1F030938A1020938910F0928C10E0928B10D0928810C092871087E890E16CE274E10E94BE
S2840027009A1581E00FC08091871090918810019690938810809387100F5F1F4F0E151F0558F280E02396E8E00C9459E4A1E1B0E0ECE9F3E10C943FE48E010F5F1F4F10938A10009389105DE9E52E5DE0F52E80918410B7010E94370F0E94551087E890E160E070E00E94FE140E94551040918B1050918C10C701B8010E94DF09009711F4DB
S28400278080E00BC0F0928A10E092891087E890E16CE274E10E949A1581E06196E6E00C945BE480919C0D0E94D21280918610882351F081E08093851080919C0D8F5F80939C0D0E94D21280918510882321F40E9496138823C1F480918510813021F40E943813882381F480919C0D8F5F80939C0D893111F080E0089510929C0D82E0809385
S284002800851081E0089581E008959093831080938210662329F480EE93E9A4E0B0E004C082E390E0A0E0B0E080937D1090937E10A0937F10B093801081E08093811087E790E10E9492140895109285108CE294E160E00E940514089581E080939B0D0E94D1138823E1F380918510823071F40E94F010813031F48CE294E161E00E94051484
S28400288008950E94241410929B0D08958F929F92AF92BF92CF92DF92EF92FF920F930E9416174B015C012091B10D30E040E050E060E070E080E090E000E20E94D808282939294A295B290F91FF90EF90DF90CF90BF90AF909F908F900895CF93DF93EC010097D1F08091AE0D9091AF0D8C179D0719F460E070E008C08EEA9DE0BE010E949D
S2840029008016BC01009741F08EEA9DE0AE010E94621620E030E002C02FEF3FEFC901DF91CF910895CF93DF93EC01009771F0E091AE0DF091AF0D06C0EC17FD07D9F00190F081E02D3097C1F706C02FEF3FEFC901DF91CF9108950E94A4189B01AC01198218826A837B838C839D838EEA9DE0BE010E94131620E030E0EACFEF92FF920F93A3
S2840029801F93CF93DF930E94A4187B018C0118C08EEA9DE060E070E0AE010E9462168A85882359F4EA82FB820C831D838EEA9DE0BE01A80197010E941316EB85FC850995C091AE0DD091AF0D209799F08A819B81AC81BD81A8019701281B390B4A0B5B0B8E819F81A885B985281739074A075B0778F6CDB7DEB7E6E00C945BE4FC018091CD
S284002A00B00D882319F02EEF3FEF58C0309709F453C08481958120813181820F931F8150904108F049C081E08093B00D7093941060939310ADE8B0E186E001900D928150E1F7F999FECF20E030E017C0E0918F10F0919010E20FF31F80918D1090918E10019690938E1080938D10019792BD81BDF89A80B580832F5F3F4F809191109091B2
S284002A8092102817390710F310929210109291108091C70D80618093C70D2FB7F8948091F90D9091FA0D82609093FA0D8093F90D2FBF20E030E002C02FEF3FEFC901089590E08091B00D813009F491E0892F08958091911090919210892B51F41092B00DE0919310F0919410309719F10995089560918D1070918E106F5F7F4F70938E1002
S284002B0060938D1061507040E0918F10F09190104191F0939010E0938F108CE00E9421198091911090919210019790939210809391100895CF93DF93FC018091B00D882319F02EEF3FEF6BC0309709F466C08481958120813181820F931F8150904108F05CC081E08093B00DADE8B0E186E001900D928150E1F77093941060939310672B3D
S284002B8019F4C0E0D0E03BC060918D1070918E106F5F7F4F70938E1060938D1061507040E0918F10F09190104191F0939010E0938F108CE00E94211980919110909192100197909392108093911024C060918D1070918E106F5F7F4F70938E1060938D1061507040E0918F10F09190104191F0939010E0938F1084E00E9421192196809198
S284002C00911090919210C817D90700F3F999FECF1092B00D20E030E002C02FEF3FEFC901DF91CF910895A0E0B0E0E9E1F6E10C943BE48C01EB0169017A01FC01608171816115710589F1FB01AA24BB24268137814085518582819381A481B581280F391F4A1F5B1F2C193D094E095F092F3F8FEF38078FEF48078FE7580748F48E819F8119
S284002C80A885B985281739074A075B0738F4808191815F01009761F0FC01D8CFE617F70731F4F983E883F801D183C08306C0CF01F501D183C08399838883CDB7DEB7EAE00C9457E4CF93DF93EC01DB01FA01888199814817590739F48081918111821082888399830AC08081918111969C938E93118210828C9111969C91DF91CF9108950B
S284002D00FC010190F081E02D06C0808191818617970719F0FC013097C1F7CF010895809170008C7F809370008091B60080628093B6001092B2001092B0001092B1001092B3008091B60090E08F719070892BC9F783E087BB87E08093B1008091700081608093700008958091B60090E08F719070892BC9F7809170008C7F809370008091A5
S284002D80B100887F8093B10083B5826083BD8091B60090E08F719070892BC9F78091B6008F7D8093B6000895EF92FF920F931F937B018C016091B200862F90E0809590959C01442737FD4095542F3070407050702E153F054007510798F4D801C701821B930BA40BB50B9C01AD01BB27A52F942F832F9093B80D8093B70D2093B90D11C083
S284002E008091B60090E08F719070892BC9F76E0D6093B30082E087BB809170008260809370001F910F91FF90EF900895EF92FF920F931F936FB7F8947091B20D2091B20084E48093B4008091B60090E08F719070892BC9F7B89904C030E040E050E00AC08091B200282F30E040E050E021503F4F4F4F5F4F6FBF8FEF789FC0011124AA2759
S284002E8097FDA095BA2F820F931FA41FB51F9C01AD0175E0220F331F441F551F7A95D1F77C018D0162E016950795F794E7946A95D1F72E0D3F1D401F511FE090B30DF090B40D0091B50D1091B60D2E0D3F1D401F511F281B390B4A0B5B0BB901CA011F910F91FF90EF90089560E270E080E090E008952FB7F8946091B20D1092B20D2FBFE9
S284002F0070E080E090E020E43FE140E050E00E94D2E32091B30D3091B40D4091B50D5091B60D260F371F481F591F2093B30D3093B40D4093B50D5093B60D261737074807590728F48091B10D8F5F8093B10D08951F920F920FB60F920BB60F9211242F933F934F935F936F937F938F939F93AF93BF93EF93FF93809170008D7F8093700053
S284002F801092B90D8091F00D80FF03C080E00E94F1198091F00D82FF11C08091C40D81608093C40D2FB7F8948091F90D9091FA0D82609093FA0D8093F90D2FBFFF91EF91BF91AF919F918F917F916F915F914F913F912F910F900BBE0F900FBE0F901F9018958091F00D80FF16C081E00E94F119809170008D7F809370008FB7F89410921A
S284003000B90D1092B80D1092B70D8FBF8091F00D8B7F8093F00D08951F920F920FB60F920BB60F9211242F933F934F935F936F937F938F939F93AF93BF93EF93FF938091B70D9091B80D892BA1F58091B90D8823E9F48091F00D80FF03C080E00E94F1198091F00D82FF34C08091C40D81608093C40D2FB7F8948091F90D9091FA0D826061
S2840030809093FA0D8093F90D2FBF22C08091B60090E08F719070892BC9F78091B90D8093B30082E087BB8091700082608093700009C08091B70D9091B80D01979093B80D8093B70D8091F00D80FF02C00E947D198091B20D8F5F8093B20D8091C40D82608093C40D2FB7F8948091F90D9091FA0D82609093FA0D8093F90D2FBFFF91EF9178
S284003100BF91AF919F918F917F916F915F914F913F912F910F900BBE0F900FBE0F901F90189580E197E29093A9008093A800E1EAF0E088E08083808182608083E2E7F0E080818260808308952FB7F8946091BB0D1092BB0D2FBF70E080E090E02AE030E040E050E00E94D2E32091BC0D3091BD0D4091BE0D5091BF0D260F371F481F591FA6
S2840031802093BC0D3093BD0D4093BE0D5093BF0D261737074807590728F48091BA0D8F5F8093BA0DB901CA0108952091BC0D3091BD0D4091BE0D5091BF0D260F371F481F591F2093BC0D3093BD0D4093BE0D5093BF0D8091C80D80688093C80D2FB7F8948091F90D9091FA0D82609093FA0D8093F90D2FBF08951F920F920FB60F9211245A
S2840032002F938F939F938091BB0D8F5F8093BB0D8091C80D80688093C80D2FB7F8948091F90D9091FA0D82609093FA0D8093F90D2FBF9F918F912F910F900FBE0F901F901895982FF999FECF07B600FCFDCF72BD61BD40BD8FB7F8949FBBF99A8FBF08951F920F920FB60F9211242F938F939F93FB988091C70D80618093C70D2FB7F8944C
S2840032808091F90D9091FA0D82609093FA0D8093F90D2FBF9F918F912F910F900FBE0F901F9018950E9416172091C00D3091C10D4091C20D5091C30D621B730B840B950B1092C00D1092C10D1092C20D1092C30D0E94D5188091A10082608093A1000E942B1B8091F00D81FD07C0E091E10DF091E20D309709F0099508950E94502288234C
S28400330009F44EC08091F00D82FD03C02FEF3FEF66C024982C988091B60090E08F719070892BC9F78091700081FD0AC08FEF8093B3008091B60090E08F719070892BC9F78091B000806C8093B0008091B60090E08F719070892BC9F78091B10080688093B1008091B60090E08F719070892BC9F78091B0008F738093B0008091B60090E0A7
S2840033808F719070892BC9F78091B00080688093B0008091B60090E08F719070892BC9F78091F00D81608093F00D8091B60090E08F719070892BC9F78091C90D80688093C90D2FB7F8948091F90D9091FA0D82609093FA0D8093F90D2FBF20E030E0C90108959091F00D8170880F9C7F982B9093F00D0E945022882311F42C980EC02498EA
S2840034002C988091B0008F738093B0008091B60090E08F719070892BC9F7249A419A8091C80D84608093C80D2FB7F8948091F90D9091FA0D82609093FA0D8093F90D2FBF08958091F00D80FF5DC08091A1008D7F8093A1008091C00D9091C10DA091C20DB091C30D0097A105B10551F40E9416176093C00D7093C10D8093C20D9093C30D3F
S28400348041988091CE0D8111EC9AF999FECF0E9450228823B1F42C9A249A8091F00D82FF05C087E083BF889513BE22C00E94B31685E083BF889513BE0E948F160E94F81A17C0909172002091BC0030917A00109272001092BC0010927A00249A87E083BF889513BE909372002093BC0030937A0084E48093B4008091B60090E08F7190703F
S284003500892BC9F70895A0E0B0E0E9E8FAE10C9437E400E8C2E8DBE810E092E8C92E9BE8D92EE12CF12C82E8A82E8BE8B82E0E943C08BC018BE86338780718F19E0140E050E0CB01A0E0B0E082589B48A040B040281739074A075B074CF4123039F480916600815080936600000036C0809166008150809366000000EB01C258DB4811E0B7
S28400358028C08BE86238780739F1CE01A0E0B0E09B0140E050E036014701621A730A840A950A86159705A805B9054CF4113039F4809166008F5F8093660000000DC0809166008F5F809366000000E501C61BD70B12E0015009F0ABCFCDB7DEB7EEE00C9453E40E945022882311F40E94831A0895CF93DF93C0E0D0E088EC0E9434082196F5
S28400360083E1C838D807C1F70E94F11ADF91CF91089580E28CBB0895ED9A08958DB3ED98807208952C9A08952C980895179A0895179808952C98249A179A0F9A6D987598399A419A0895EAE6F0E080818C608083089584E008951F9310E00E94A82581E80E949125812F0E949125182F0E94A625183099F71F9108950E943408089580916E
S284003680C40D80FF0BC09FB7F8948091C40D8E7F8093C40D9FBF0E94AA2577C08091C40D81FF0BC09FB7F8948091C40D8D7F8093C40D9FBF0E94791768C08091C60D87FF0BC09FB7F8948091C60D8F778093C60D9FBF0E94D91F59C08091C70D83FF0BC09FB7F8948091C70D877F8093C70D9FBF0E94AF214AC08091C70D84FF0BC09FB715
S284003700F8948091C70D8F7E8093C70D9FBF0E9468153BC08091C80D82FF0BC09FB7F8948091C80D8B7F8093C80D9FBF0E9452192CC08091C80D85FF0BC09FB7F8948091C80D8F7D8093C80D9FBF0E9493211DC08091C80D87FF0BC09FB7F8948091C80D8F778093C80D9FBF0E94BD140EC08091C90D87FF0AC09FB7F8948091C90D8F7710
S2840037808093C90D9FBF0E94211A8091C40D8823A1F48091C50D882381F48091C60D882361F48091C70D882341F48091C80D882321F48091C90D882361F02FB7F8948091F90D9091FA0D82609093FA0D8093F90D2FBF08959091D10D21E030E002C0220F331F8A95E2F7922B9093D10D8091C60D80688093C60D2FB7F8948091F90D909181
S284003800FA0D82609093FA0D8093F90D2FBF0895CF93DF93E82FF0E0CF01805C9040A3E095958795AA95E1F7482F50E0EA01CC0FDD1FC653D24FA881B981109721F481818F7781836CC090968C91909783FD67C05496ED91FC91559784FF09C06083E881F981848995890196958B848B58C0EF2B09F455C01696CD91DC91179716968D9153
S2840038809C911797019617969C938E93169716962D913C91179756968D919C9157972817390721F417961C921E92169716962D913C91179714968D919C9115972817390729F41796DC93CE93169729C05496ED91FC915597EC0FFD1F608318968D919C911997019619969C938E931897440F551F4653524FEA01E881F98180A180FF0FC015
S2840039008385883C61F418962D913C91199786899789969587958217930708F45D9ADF91CF910895A0E0B0E0E8E9FCE10C943BE4EC018B01BA01009709F46DC0EB85E03C19F0E83C09F067C00115110509F463C06115710509F45FC0F0E0E05CF04083E0F595E7958A95E1F7F0E0EE0FFF1FE653F24FA080B180CA15DB0509F04CC08A8D63
S2840039809B8D892B81F42A813B81888199812817390709F040C0198F088F7B836A8319821882AB0130C08FB7F894CA80DB80E880F9808FBFD60140E050E019C09D012F5F3F4F8A8D9B8D2817390711F420E030E02E153F0579F0E88DF98DEA0FFB1FD801A40FB51F8C9180834F5F5F4FD9014617570720F38FB7F894F501B383A2838FBF4E
S284003A00CE14DF0431F41A86EB85F0E08181806281839A0102C02FEF3FEFC901CDB7DEB7EAE00C9457E4A0E0B0E0E9E1FDE10C943BE48C016B017A01009709F46BC0DC011B96EC91E03C19F0E83C09F063C0C114D10409F45FC0E114F10409F45BC0F0E0E05CF040A3E0F595E795AA95E1F7F0E0EE0FFF1FE653F24FC081D1810C171D0761
S284003A8009F048C08FB7F894F80166817781248135818FBF40E050E01AC05601A40EB51ED8015496ED91FC915597E20FF31F8081F50180832F5F3F4F56968D919C9157972817390711F420E030E04F5F5F4F2617370719F04E155F0500F38FB7F8943D832C8328853985241B350B39872887288539858FBF8B85883C59F488A180FF08C05D
S284003B008E899F89969587958217930708F05D989A0102C02FEF3FEFC901CDB7DEB7EAE00C9457E4DC01009701F11B962C911B97203C11F0283CC9F4E22FF0E0E05CF04093E0F595E7959A95E1F7F0E0EE0FFF1FE653F24F80819181A817B90731F4283C21F45D9A20E030E002C02FEF3FEFC9010895DC01009701F11B962C911B97203CA5
S284003B8011F0283CC9F4E22FF0E0E05CF04043E0F595E7954A95E1F7F0E0EE0FFF1FE653F24F80819181A817B90731F4283C21F45D9820E030E002C02FEF3FEFC9010895E82FF0E0E05CF04033E0F595E7953A95E1F7F0E0EE0FFF1FE653F24F0190F081E02D3097C1F04FB7F89422813381808191814FBF2817390711F481E08287828D5C
S284003C00938D892B11F4118E108E068CF78DE02D309709F0099508959093D00D8093CF0D81E08093CE0D08951092CE0D0895DC01009771F11B96EC911B97E03C11F0E83C39F5F0E0E05CF04053E0F595E7955A95E1F7F0E0EE0FFF1FE653F24F80819181A817B907A9F44FB7F89412962D913C9113978D919C9111974FBF2817390719F029
S284003C8020E030E007C01A968C91282F30E002C02FEF3FEFC9010895FC0183899385882349F4903C19F0983C89F402C06A9A0895559A0895903C19F0983C41F404C06A987298729A089555985D985D9A0895CF93DF93FC010097A1F18385803C11F0883C79F590E0805C9040E3E095958795EA95E1F7C82FD0E0DE01AA0FBB1FA653B24FD4
S284003D00ED91FC9111973097D9F0E385F0E01182ED91FC9180A180FF02C055985D988485803429F481E0838BCF010E944C1ECC0FDD1FC653D24F1982188220E030E002C02FEF3FEFC901DF91CF91089580EC0E94E01D0895E091CA0DF091CB0D309791F080A1887179F48FB7F894208531858FBF2115310539F0048CF58DE02D309711F012
S284003D80C9010995089588EC0E94E01D0895E091CC0DF091CD0D309791F080A1887179F48FB7F894208531858FBF2115310539F0048CF58DE02D309711F0C90109950895CF93DF93282F682F70E0CB01805C904053E0959587955A95E1F7A82FB0E0FD01EE0FFF1FE653F24FC081D181209709F46AC0283CC9F588A1282F81FD02C030E072
S284003E0009C08CB190E034E0969587953A95E1F7382F317020FD02C080E008C089B190E024E0969587952A95E1F78170332311F48823D1F08AE090E0A0E0B0E08093D80D9093D90DA093DA0DB093DB0D81E08093DC0D86E69FE19093DE0D8093DD0D82ED9DE00E9492142FC02FB7F8948A819B81488159812FBF8417950709F1E88DF98D75
S284003E80E40FF51F80819A012F5F3F4FFB018683AA0FBB1FA653B24FED91FC91828D938D2817390711F420E030E0FB018181806281838FB7F894398328838FBF04C0FB01818180648183DF91CF91089588EC0E94E01E089588EC0E94E01E089580EC0E94E01E0895CF93DF93EC01009709F45BC04B85403C19F0483C09F055C088A1282F3A
S284003F0030E0B9016170707080FF03C0483C09F04AC0842F90E0805C9040B3E095958795BA95E1F7E82FF0E0EE0FFF1FE653F24F80819181892BB9F5D183C083483C81F421FF02C06C987498672B51F0559A54985C988C899D89892B11F45D9A01C05D988C85803419F4CE010E944C1E198218821B821A828C899D89892B11F41F8A1E8A13
S284003F80888D998D892B11F41B8E1A8E1D821C821F821E8281E08A87CE010E9479228B85282F30E002C02FEF3FEFC901DF91CF910895CF92DF92FF920F931F93DF93CF9300D00F92CDB7DEB781E08983FF2400E010E092E0C92ED12CCC0EDD1E9091D10D89818923B9F02FB7F8949091D10D898189278093D10D2FBF6F2D70E0660F771FB0
S2840040006F54794FC60142E050E00E94B809EA81FB810995F3948981880F89830F5F1F4F06301105D9F60F900F900F90CF91DF911F910F91FF90DF90CF90089587E08093DF0D80E98093BC008091C80D80628093C80D2FB7F8948091F90D9091FA0D82609093FA0D8093F90D2FBF08958091DF0D823041F08091DF0D833021F08091DF0D40
S284004080843021F480919910880F08C08091DF0D853051F480919910880F8F5F8093BB0085E88093BC00089587E08093DF0D80E98093BC008091C80D80628093C80D2FB7F8948091F90D9091FA0D82609093FA0D8093F90D2FBF08959091981080919710981790F480919810E0919510F0919610E80FF11D90818F5F809398109093BB0006
S28400410085E88093BC00089586E08093DF0D84E98093BC008091C80D80628093C80D2FB7F8948091F90D9091FA0D82609093FA0D8093F90D2FBF08958091DF0D843019F40E946C2008958091DF0D823021F08091DF0D833049F580919A1090919B10A0919C10B0919D10209198102150209398102091981004C0B695A795979587952A9556
S284004180D2F78093BB0085E88093BC0080919810882349F58091DF0D823011F484E001C085E08093DF0D08958091DF0D853021F485EA8093BC00089587E08093DF0D80E98093BC008091C80D80628093C80D2FB7F8948091F90D9091FA0D82609093FA0D8093F90D2FBF08958091DF0D853099F480919710813021F48091BC008F7B03C0C3
S2840042008091BC0080648093BC008091BC0085688093BC00089587E08093DF0D80E98093BC008091C80D80628093C80D2FB7F8948091F90D9091FA0D82609093FA0D8093F90D2FBF0895982F8091DF0D853029F580919810E0919510F0919610E80FF11D90838F5F80939810209198108091971030E090E001972817390724F48091BC0009
S284004280806403C08091BC008F7B8093BC008091BC0085688093BC00089587E08093DF0D80E98093BC008091C80D80628093C80D2FB7F8948091F90D9091FA0D82609093FA0D8093F90D2FBF0895982F8091DF0D853089F480919810E0919510F0919610E80FF11D90838F5F8093981086E08093DF0D84E904C087E08093DF0D80E9809372
S284004300BC008091C80D80628093C80D2FB7F8948091F90D9091FA0D82609093FA0D8093F90D2FBF0895E0919E10F0919F10309791F08091DF0D863041F48091BC0084FDFCCF81E08093DF0D04C081E08093DF0D80E00995089581E08093DF0D08958091E00D813051F482E08093E00DE091A010F091A110309709F0099508958091E00D15
S284004380882319F42FEF3FEF06C01092E00D0E94992420E030E0C9010895982F8091E00D823079F4892F8450843058F0903148F481E08093E00D892F0E94052520E030E002C02FEF3FEFC9010895CF93DF93EC018091E00D882319F5209709F18B819C81892BE9F028812230D0F48A8190E08F739070892BA1F4213019F48981833078F0CF
S28400440082E08093E00DCE010E9452258F8198859093A1108093A01020E030E002C02FEF3FEFC901DF91CF910895ADE0B0E0EBE1F2E20C9443E4FC01009719F42FEF3FEF2AC0848195819093E20D8093E10D80819181A281B3818F839887A987BA8781E08B871D861C86CE0101960E94D3252FEF8F3F920771F08D5F9F4F59F00E947D1946
S2840044808F5F9F4F19F020E030E005C02DEF3FEF02C02EEF3FEFC9012D96E2E00C945FE48091F10D0895F999FECF9FB7F89489E0E0E0F0E08093570084919FBF8F70823019F41092F10D03C081E08093F10D8091F10D882369F48FB7F8945F9350E85093610050E0509361005F918FBF0E94F81A0895DC011B96EC911B97F0E011821B96F3
S284004500EC911B97F0E01D968C911D9784831C968C911C971B96EC911B97882349F4F0E082E080831B96EC911B97F0E012820AC0F0E010821B96EC911B97F0E052968C91529782831B96EC911B97F0E082811C969C911C97892B82831B96EC911B97F0E082811F969C911F97892B82831B96EC911B97F0E0828150969C915097892B8283B2
S2840045801B96EC911B97F0E0828151969C915197892B82831B96EC911B97F0E08081806880831B96EC911B97F0E08181886181831B96EC91F0E081818068818308951F920F920FB60F920BB60F9211242F933F934F935F936F937F938F939F93AF93BF93EF93FF930E94F1178091CE0D8111EC98E091CF0DF091D00D309709F00995FF917E
S284004600EF91BF91AF919F918F917F916F915F914F913F912F910F900BBE0F900FBE0F901F9018951F920F920FB60F920BB60F9211242F933F934F935F936F937F938F939F93AF93BF93EF93FF938091C8006091CE008C7131F488EC0E94081C85E00E94EA1BFF91EF91BF91AF919F918F917F916F915F914F913F912F910F900BBE0F9068
S2840046800FBE0F901F9018951F920F920FB60F920BB60F9211242F933F934F935F936F937F938F939F93AF93BF93EF93FF93E9ECF0E080818F7B808384E00E94EA1BFF91EF91BF91AF919F918F917F916F915F914F913F912F910F900BBE0F900FBE0F901F9018951F920F920FB60F920BB60F9211242F933F934F935F936F937F938F934C
S2840047009F93AF93BF93EF93FF93E9ECF0E080818F7D808383E00E94EA1BFF91EF91BF91AF919F918F917F916F915F914F913F912F910F900BBE0F900FBE0F901F9018951F920F920FB60F920BB60F9211242F933F934F935F936F937F938F939F93AF93BF93EF93FF938091C0006091C6008C7131F480EC0E94081C82E00E94EA1BFF9130
S284004780EF91BF91AF919F918F917F916F915F914F913F912F910F900BBE0F900FBE0F901F9018951F920F920FB60F920BB60F9211242F933F934F935F936F937F938F939F93AF93BF93EF93FF93E1ECF0E080818F7B808381E00E94EA1BFF91EF91BF91AF919F918F917F916F915F914F913F912F910F900BBE0F900FBE0F901F9018956C
S2840048001F920F920FB60F920BB60F9211242F933F934F935F936F937F938F939F93AF93BF93EF93FF93E1ECF0E080818F7D808380E00E94EA1BFF91EF91BF91AF919F918F917F916F915F914F913F912F910F900BBE0F900FBE0F901F9018951F920F920FB60F920BB60F9211242F933F934F935F936F937F938F939F93AF93BF93EF9354
S284004880FF938091B90090E0887F90708832910559F1893291058CF48031910511F1813191052CF4009719F1089781F51AC088319105D1F0809751F51AC088349105B9F0893491053CF48033910589F080349105E9F410C08035910581F088359105B1F411C00E94362012C00E949C200FC00E941E200CC00E94F42009C08091BB000E94A1
S284004900232104C08091BB000E946521FF91EF91BF91AF919F918F917F916F915F914F913F912F910F900BBE0F900FBE0F901F90189510927C0010927A0010927E0008951F920F920FB60F920BB60F9211242F933F934F935F938F939F93EF93FF938091F20DE091F30DF091F40D882351F48091F50D9091F60D20917900E80FF91F2083EB
S2840049800FC08091F50D9091F60D40917800509179009C01220F331FE20FF31F5183408301969093F60D8093F50D2091F50D3091F60D8091F70D9091F80D28173907B1F480917A00877F80937A008091C70D88608093C70D2FB7F8948091F90D9091FA0D82609093FA0D8093F90D2FBFFF91EF919F918F915F914F913F912F910F900BBEE9
S284004A000F900FBE0F901F901895282F1092F60D1092F50D843048F481E090E0022E02C0880F991F0A94E2F717C0883011F08A3011F481E011C0893011F08B3011F483E00BC08C3011F08E3011F484E005C08D3011F08F3019F48CE080937E0080917C0090917C00907E90937C0090917C00922B90937C008F71821729F0243018F08DE706
S284004A800E9434088091F70D9091F80D029720F080917A00886603C080917A00886480937A000895A1E0B0E0E8E5F5E20C9443E4FC01858196819093F80D8093F70D80818093F20D838194819093F40D8093F30D828180937C008091F20D882329F480917C00806280937C00618170E06354794FCE01019641E050E00E94B80989818068B5
S284004B0080937A002196E2E00C945FE4289A23982B98229A219A209A80E58CBD81E08DBD08958EBD000000000000000000000000000000000000000000000000000000000000000000008DB58EB50895289A0895289808959091F00D92FF24C08091ED0D8823B1F4E091EE0DF091EF0D309709F009958091F00D82FF15C06091E90D709136
S284004B80EA0D8091EB0D9091EC0D0E94D41608959B7F9093F00DE091EE0DF091EF0D309709F009950895CF93DF93EC01009719F42FEF3FEF2EC00E9474172E813F81488559850E94D2E328EE33E040E050E00E9411E4B901CA01611571058105910519F42EEF3FEF16C02091F00D22FF03C02DEF3FEF0FC024602093F00DA3EEBDE0FE013B
S284004C002DE001900D922150E1F70E94D41620E030E0C901DF91CF910895A1E0B0E0E3E1F6E20C9443E419820E94291B823051F0833018F4882391F014C0833039F0843081F408C08981887F82600EC08981887F83600AC08981887F846006C08981887F03C08981887F8160898369816F7C6061698383E00E94A6262196E2E00C945FE4A7
S284004C800E941A1B8FEF0E943C1B8FEF0E943C1B0E94181B86E00E943C1B0E94161B82E068E00E94A6268FEF0E943C1B8FEF0E943C1B81E00E9494268F718830D1F70E940D268EE060E00E94A6260E948DDF0E94091B0E940C1B08951F93CF93DF93EC01162F05C080E20E949125899311501123C9F7DF91CF911F9108951F93CF93DF932A
S284004D00EC01162F0E94A82580E60E94912504C089910E94912511501123D1F70E94A625DF91CF911F9108951F93182F0E94A8251F731068812F0E949125812F0E949125182F0E94A625812F1F9108950F931F93182F062F0E94A825812F806C0E949125802F0E9491250E94A6251F910F910895E0E0F0E021E030E0B9010E2E02C0660F1D
S284004D80771F0A94E2F78091F90D9091FA0D86239723892BC9F04FB7F8942091F90D3091FA0DCB0180959095822393239093FA0D8093F90D4FBFEE0FFF1FEA5DFD4F0190F081E02D099504C03196EB30F105A1F68091F90D9091FA0D20E0892B09F021E0822F08950E94B826089521E030E002C0220F331F8A95E2F780913C0290913D02EC
S284004E00822B932B90933D0280933C022FB7F8948091F90D9091FA0D80619093FA0D8093F90D2FBF089521E030E002C0220F331F8A95E2F72095309580913C0290913D028223932390933D0280933C02089520913C0230913D0221153105A9F1E0E0F0E061E070E0AB010E2E02C0440F551F0A94E2F7CA0182239323892B09F12427352714
S284004E8030933D0220933C02EE0FFF1FE25CFD4F0190F081E02D099580913C0290913D02892B89F02FB7F8948091F90D9091FA0D80619093FA0D8093F90D2FBF08953196E530F10579F608958093CC15882319F481E00E94F52608959093AA158093A91581E00E94F52608958093AB15882361F48DE295E10E945671892B19F082E00E9497
S284004F00F52681E00E94F5260895DC01E091A915F091AA15E957FF4F8C918083E091A915F091AA158481833071F0863039F0823061F48C91882339F484E006C08C91882311F485E001C087E084831092AA151092A91580E00E94742708950F931F93CF93DF93EC018A8D9B8D97FF69C08853904809F465C08DE295E10E9456715BC0EE8DA7
S284004F80FF8D908115968C911597981709F04FC014968C911497823039F416968D919C911797069769F46FC0843009F040C016968D919C911797069709F463C087E001C083E014968C931497A358BF4F8C858C93AD57B040823051F4A258BF4F8D859E8511969C938E93AE57B04015C0833099F4FD01E258FF4F8F85808388898183898991
S28400500082838A8983838B8984838C8985838D8986838E8987839D012A573F4F6E8D7F8D4C8D5D8DC9010E94EC0982E027C0CD010E945A71DC01009709F0A1CF26C08091CC15882311F505EF15E16E8D7F8D4C8D5D8DC8010E94EC09D8019897FE0188E201900D928150E1F785EF95E19093EC158093EB1581E00E94642781E00E94F526A8
S28400508004C085E09ECF86E09CCFDF91CF911F910F9108952091E7153091E8153F772F31310518F40E946D760895C90180970B9718F40E9431730895205330402930310510F40E94A77D0895CF93DF938091AB15823041F483E00E9474278CEA95E10E945637A5C0882309F0A2C08091CC15813089F40E94742780E2ECEAF5E1DF011D92AB
S2840051008A95E9F70E944A288091AB15823009F08EC08AC08091A9159091AA15892B09F486C081E00E94742780E2ECEAF5E1DF011D928A95E9F785E897E29093C6158093C515E091A915F091AA15C681D78182E00E947427E091A915F091AA15E957FF4F10829E013F772F31310518F40E9472790EC0C90180970B9718F40E94A17207C0B9
S284005180205330402930310510F40E94147CC331D10531F0C833D10519F0C853D04831F4E091A915F091AA1583E005C0E091A915F091AA1582E084838091BF159091C015E091A915F091AA15892B51F487E084831092AA151092A91580E00E94742724C0868197819093BD158093BC158091A81583AB8F5F8093A815E091A915F091AA1562
S28400520083A985838091BF159091C01501969093C0158093BF158091A9159091AA15C3969093C2158093C11581E00E94F526DF91CF91089581E00E9413271092AA151092A9151092AB1588E2EDECF5E1DF011D928A95E9F7E5EFF5E18CE5DF011D928A95E9F7F093EC15E093EB151092CC150895EF92FF920F931F93CF93DF938DE295E148
S2840052800E945671EC0192E0E92E84E0F82E17E001E076C08C81873028F4853018F5882329F06AC0873009F067C02EC0809151169091521692FF0CC08091A9159091AA15892B09F059C00C83CE010E946C2754C01C83C957DF4F1883C758D04082E00E94F5264AC0853011F4FC8201C0EC82C558DF4FE881F981CB57D0403097E9F1CE014C
S28400530083589F4F099538C08DE295E1BE010E9473718E819F810197C9F4C957DF4F8881C758D040882391F4DE01A057BF4FFE01E857FF4F008111812281338144815581668177818D919C910E948855C558DF4FE881F981CB57D040309721F0CE0183589F4F09958DE295E10E945671892B59F082E00E94F52607C0CE010E945A71EC017F
S284005380209709F087CFCDB7DEB7E6E00C945BE4FF920F931F93CF93DF938DE295E10E945671EC0127E0F22E0BE81DE020C02C818A819B81009789F42430A9F48E819F81FE01E957FF4F069711F4108301C00083FC8282E00E94F52606C02250233018F401979B838A83CE010E945A71EC012097F1F6CDB7DEB7E5E00C945CE4A8E0B0E057
S284005400E4E0FAE20C9441E48C018CE1BE016F5F7F4F0E94370F81E2BE016B5F7F4F0E94370F89819A81AB81BC81880F991FAA1FBB1F2D813E814F815885820F931FA41FB51F37E0B695A795979587953A95D1F789839A83AB83BC83F8019383828314828DE295E1B8010E943F7182E00E94F5262896E4E00C945DE40F931F9382E00E94E8
S28400548013270DE215E1C8010E9439710E941A290C5F1F4FC8010E946D1410923B1588EC99E290933D1580933C1580E890E0A0E0B0E08093371590933815A0933915B0933A15C8010E9492141F910F9108958091FB0D81508093FB0D0895EF92FF920F931F93E82E90910C0E4091110E5091120E10E060E070E084C0FA0187814A5A5F4FE4
S2840055009B012A5A3F4F882309F078C082E0E816E1F0E81620F084E0E81609F074C09091100E80910E0E981708F06DC09F5F9093100E1382148215821682E091110EF091120EE60FF71F128646C090910F0E80910D0E981708F057C0F090090EA0910A0EB0910B0E00E020E030E02FC0FD01E20FF31FA9014D5D5F4F808180FD24C09F5F77
S28400558090930F0E808181608083E0910A0EF0910B0EE20FF31F110F110F80818370812B8083E091110EF091120EE60FF71FEE5BFF4F80910A0E90910B0E820F931F47969183808304C00F5F9A010F1578F28091090E8017C1F0E091110EF091120EE60FF71F118681E08783E086118210822091110E3091120E260F371F07C01F5FB9013C
S284005600191708F479CF20E030E0C9011F910F91FF90EF900895CF93DF932091110E3091120E8217930708F462C0821B930B66E570E00E94FDE380910C0E681708F057C086E5689FE0011124F901EC0FFD1F11868085823069F0823018F0843009F040C08091100E8823E1F181508093100E38C080910F0E882319F0815080930F0E209114
S2840056800A0E30910B0EEE5BFF4F80819181821B930B63E270E00E94FDE380910D0E6817A8F483E2689FB0011124F901E60FF71F808180FF0BC08E7F8083E0910A0EF0910B0EE60FF71F80818D7F8083E091110EF091120EEC0FFD1FEE5BFF4F11821082E091110EF091120EEC0FFD1F1782DF91CF910895FC01138A8091FE0D8150809394
S284005700FE0D21893289CF014396F90109950895A8E0B0E0EEE8FBE20C943FE484E0BE016F5F7F4F0E94370F8E010B5F1F4F8CE1B8010E94370F2D813E814F815885898190E0A0E0B0E082179307A407B50760F0220F331F441F551F2D833E834F8358878CE1B8010E94DD0D898190E00796AA2797FDA095BA2F9C01AD0164E0220F331FC4
S284005780441F551F6A95D1F7281B390B4A0B5B0B8D819E81AF81B885280F391F4A1F5B1F2093220E3093230E4093240E5093250E83E19EE060E02AE030E040E050E008E81DE20E94C53C8EE1BE016E5F7F4F0E94370F87E0BE016D5F7F4F0E94310D7091210EE090220EF090230E0091240E1091250E20E030E040E050E060E013C0D801F3
S284005800C701062E04C0880F991FAA1FBB1F0A94D2F781509E4FAF4FBF4F280F391F4A1F5B1F6F5F671758F3CA01B90124EF31E040E050E00E9411E4022F6B817C810E5F8FEF9DE04A8124EF31E0EE24E3940E94AA712896E6E00C945BE4CF93DF93EC01FA01009739F16B8F4115510549F080819181A281B3818C8F9D8FAE8FBF8F04C031
S2840058801C8E1D8E1E8E1F8EE98DFA8D309719F0CE014B9609958F8983FF0CC08B899C898D35910538F010923B0F10923A0F83E00E94553CDF91CF91089583E19EE00E94BC3C83E00E94553C08952091FB0D2F5F2093FB0D0E942C570895A1E0B0E0E3E7FCE20C943AE47C018B018091FD0D0C5B1F4FD8018D938D018F5F8093FD0DF70174
S284005900808D8C930E5F1F4F99249394D8019D92FD0111928F018AE397E39183808309541040F1E4CF2ED12CC00ED11ED70153968C915397F6018083E2E4AE2EB12CA00EB11E55968D919C915697D5018D939C9384E2BE016F5F7F4F0E94370F89819801215C3F4FA8014A5B5F4F882399F582E0F80186AF8DEF9FEFD9018D939C93F6017B
S2840059808081875F8083D501ED91FC9111973997ED93FC93DA011C92D70113968D919C9114979283818350968D919C915197948383831E968D919C911F979683858352968C9187838091FC0D80878F5F8093FC0D83E035C0F80196AED70113968D919C911497F9019183808353968C91885FD6018C93D7015596ED91FC9156973897D50191
S284005A00ED93FC9380919716DA018C938FEF8183D70150968D919C915197938382831E968D919C911F979583848352968C9186838091FC0D87838F5F8093FC0D80E00E5B1F4FD801ED91FC91880F880F8083C801C7970E94652C80E02196EBE00C9456E482E88093540E80913C0E8093550E8091380E9091390E9093570E8093560E8091DB
S284005A803A0E90913B0E9093590E8093580E8091370E80935A0E80913D0E80935B0E82E080935C0E8091330E80935D0EE4E5FEE08091340E80935E0E82E087AF8091350E9091360E9093950E8093940E8BE08093960EF093980EE093970E8091FD0D8093990E8F5F8093FD0D10929A0E10929B0E81E080939C0E10929D0E87E69AE2909300
S284005B009F0E80939E0ECF010C960E94652C0895DF92EF92FF920F931F9301E010E086E5D82EB3E0EB2EA7E0FA2E3AC01D9D90011124E091110EF091120EE20FF31F8781882369F18185823051F58085813011F0843029F583819481A581B6818A309105A105B10548F00A97A109B10983839483A583B68300E013C0E18613821482158203
S284005B801682E091110EF091120EE20FF31F8085843011F4F092290F83E00E94553C1F5F80910C0E181710F280912E0E90912F0EA091300EB091310E0097A105B105E9F08B309105A105B10560F00A97A109B10980932E0E90932F0EA093300EB093310E12C010922E0E10922F0E1092300E1092310E1092260E0E94302D002321F083E125
S284005C009EE00E94BC3C1F910F91FF90EF90DF900895A0E0B0E0EFE0FEE20C943EE47C01EB0182E08EAFEF96D70113968D919C91149799838883EF9757968C91579783FF44C053964D915C9154974D355105E8F18091270F282F30E080912A0F90E001972817390719F09CE5D92E0CC084EA9FEFFC012E9FC0012F9F900D3E9F900D112420
S284005C80D82ED40E0AEC1EE08CE590E0AC01249FC001259F900D349F900D1124D70155962D913C915697280F391FC801B9014D2D50E00E94EC09CF5BDF4FBAE0DB0ED9920A501040198308830BC0CF5BDF4FF7018389885F899385899689089799838883C254D0408091FD0DCC5BDF4F89938F5F8093FD0DD70158968C9158978993199293
S284005D0081E0899319928AE397E3998388832797E881F981C254D0402081822F8C7F808313968D919C911497207F875F9F4F08F0286020832081922F9F7D9083D70157968C9182FD03C02F79208317C09064908381E08987D70157968C91579783FF0AC053968D919C9154978D35910518F080912C0F02C08091210E8A87D70157968C9161
S284005D80579783FF1BC053968D919C9154978D359105A0F08081806880839091270F8085992339F48C7F8160808780912A0F818708C08C7F82608087918703C080818F778083D7011D968C911D97818350968D919C915197938382831E968D919C911F979583848352968C915297868357968C91579783FF0BC053968D919C9154978D35B0
S284005E00910520F080912B0F878306C08091FC0D87838F5F8093FC0DCE010B960E94652C80E0CDB7DEB7E7E00C945AE4FC0182818130B1F181E082838381815083838091FD0D8F5F8093FD0D815085AF8091FB0D8F5F8093FB0D8181813049F4CF0104960E942C5783E19EE00E94E73C08958430B9F48091290F8E7F8093290F8091280F7F
S284005E808093270F80912C0F815080932C0FE0913A0FF0913B0F80819181BF010E94092E08950F931F93CF93DF930E94203C843019F410E006E52AC00E94203C8530C9F32AC0109FE0011124E091110EF091120EEC0FFD1F87818823C1F080858130A9F481858250823088F48081918163EA40E050E00E942D2C8091110E9091120E8C0F95
S284005F009D1F855B9F4F0E940B2B1F5F80910C0E1817B8F23AC00E94203C8330B1F510E006E52FC0109FE0011124E091110EF091120EEC0FFD1F8781882311F181858330F9F48085813011F08430D1F48285882329F0CF0107960E94162F12C08081918167EAE15BFF4FAF010E942D2C8091110E9091120E8C0F9D1F855B9F4F0E940B2B8D
S284005F801F5F80910C0E181768F2DF91CF911F910F910895A0E0B0E0E0EDFFE20C943AE46C01FC01C085D18510E036E5932E21E0A22EB12C06E011C1199D70011124A091110EB091120EAE0DBF1D17968C911797882309F401C119968C911997823009F0FBC018968C911897813009F057C0FD01EE5BFF4F608171814D915C911197F60185
S28400600025813681FA01838194812817390709F0E3C0FB019F818781981709F0DDC02C813D81848195812817390709F0D5C02A813B81828193812817390709F0CDC099818681981709F0C8C09E818181981709F0C3C088818370823029F4A15BBF4FCA0160E00EC01A968C911A97882329F0CD0107960E94162FB6C0A15BBF4FCA0161EB9A
S284006080AD010E942D2C8091110E9091120E8E0D9F1D855B9F4F0E940B2BA4C0843009F09BC0FD01EE5BFF4F408151818D919C911197F60125813681FC01838194812817390709F089C0FA019F818781981709F083C02C813D81848195812817390709F07BC02A813B81828193812817390709F073C099818681981709F06EC09E8181814A
S284006100981709F069C049858091280F481709F063C08A858F3F79F52091270F30E080912A0F90E0019728173907C1F410923B0F10923A0F8D919C91119760E0A15BBF4FAD010E942D2C8091110E9091120E8E0D9F1D855B9F4F0E940B2B3EC0942F9D5F9093280F8091210E80932C0F9093270F0093290F28C0382F30953093290F30FFBE
S28400618005C020E080E090E010E00FC031FF05C021E081E090E011E008C032FD02C013E012C022E082E090E012E0240F2093270FA50102C0440F551F8A95E2F7CA01809583238093290FE0913A0FF0913B0F80819181BF010E94092E1F5F80910C0E181708F4EACECDB7DEB7EBE00C9456E4E0913A0FF0913B0F80819181BF010E94092E8A
S28400620008950F931F93CF93DF930AC088E492E00E945E71CE0163EA40E050E00E942D2C88E492E00E945671EC01009779F731C080E592E0BE010E9473712091110E3091120ECE01821B930B66E570E00E94FDE380910C0E6817F0F4619FF0011124E20FF31F808191816085613051F0613018F0623081F40AC0AE014C5F5F4F6A8103C013
S28400628067EA40E050E00E942D2CCE010E940B2B01C016E580E592E00E945671EC01009739F610E006E525C0109FC0011124E091110EF091120EE80FF91F87818823C1F0808191812085213051F0213018F0223079F40AC06091020044E050E003C067EA40E050E00E942D2C80E090E00E940B2B1F5F80910C0E1817B8F2DF91CF911F9122
S2840063000F910895FC01908180916216981731F5918180916316981709F59281809164169817E1F49381809165169817B9F4948180916616981791F4958180916716981769F4968180916816981741F4978180916916981719F42FE536E104C0CF010E947B569C01C9010895A0E0B0E0EAEBF1E30C943CE483E00E94353CD82E0E94203C6B
S2840063808450823008F0EAC001C1DD2011F413EAD9C08F8983FF16C080913A0F90913B0F892B81F08B899C898D35910558F0CE010E94A071FC01EC01009709F401C1878983FDF0CF8F89282F269526952695217011F082FF32C08F8980FD2FC081FD2DC082958F7051F58B899C898D35910520F0222311F410EAA6C08A89882329F00E941E
S284006400D689892B09F4D6C02A81223031F48B819C81885F9F4F18F405C0213019F48F8982FDC8C0822F8250823008F0B7C08D85815F8E3008F4BEC0B1C01AEA83C08F8982FF09C083FF07C08B899C898D35910510F084E001C080E00E946D2A8C01E5E7EE2EE3E3FE2EA8C080E00E946D2A8C017DE6E72E7CE2F72E9FC0CE0105960E9428
S2840064808231FC01009711F419EA5CC0808191819C838B83BA828F8982FF0BC083FF07C08B899C898D35910510F084E003C081E001C080E00E946D2A8C0169E0E62E6EE2F62E7AC088E492E0BE010E9473718F8982FF2EC083FF2CC02B893C892D35310538F110933B0F00933A0F1092270F1092280F8091210E80932C0FC9016CE570E033
S2840065000E94FDE3462F60932A0FC9016CE570E00E94FDE3892B19F04F5F40932A0FC092290F8091FC0D80932B0F8F5F8093FC0DF801D183C083CE01B801F7010995182F882381F088E492E0BE010E947371CE01612F40E050E00E942D2C04C056E0C52E42E0B42E88E492E00E945671EC01009709F00BCF25C088E492E0BE010E9473711F
S284006580CE0163EA40E050E00E942D2C88E492E00E945671EC01009771F712C0213009F463CF213008F44BCF223009F474CF233009F463CF16EAC6CF0115110509F082CFCDB7DEB7E9E00C9458E4A0E0B0E0EBEEF2E30C943DE4EC016B018B010D5A1F4FE5E5EE2EF12CE60EF71ED8018D919C91F70160810E94F187D7018C938F3F11F440
S28400660098EA6DC0F801A081B18190E09C0173E0220F331F7A95E1F7880F991F280F391FA20FB31FFD013C961C968C918D8381818E8382818F83838188878481898785818A8786818B8787818C8783E08A83D801ED91FC91D7018C9190E09C0153E0220F331F5A95E1F7880F991F280F391FE20FF31F84898D87D982C882D801ED91FC9147
S284006680D7018C9190E09C01B3E0220F331FBA95E1F7880F991F280F391FE20FF31F8385833091F4CE0105960E948231FC01009711F499EA0EC0808191819C838B83CE01B6010E94092E04C0CE01B6010E946D2C982FF601EB5AFF4F80818F5F8083892FCDB7DEB7E8E00C9459E4ADE0B0E0EBE7F3E30C943FE47C018B018FE0BE016F5F22
S2840067007F4F0E94310DE981FA8180818B8381818C8382818D8383818E8384818F83858188878681898787818A87F70182898B87808991899D878C87CE0103960E9490870D5A1F4FF8019183808303551040892B19F4F8EAFF2E0DC00B5A1F4FF801108205551040C701B8010E94E532F82E882319F0C8010E940B2B8F2D2D96E6E00C9481
S2840067805BE4A3E0B0E0E7ECF3E30C9434E40E94203C782E882309F47AC142E0841709F476C180E592E00E9456719B838A830E94A0714C0186E5382E572D54505983B1E04B2E512CA2E06A2E5DC1E091110EF091120E8A819B818E1B9F0B66E570E00E94FDE380910C0E681708F03BC1639D50011124EA0DFB1D00811181E085E130F1F104
S284006800E13038F0E23009F422C1E43009F029C18FC08981823008F48EC093E0791609F020C180E592E06A817B810E947371F80182818823D1F4EA81FB816281662369F46091110E7091120E6A0D7B1DC8010E94E532883A09F005C108C04A815B814C5F5F4FC8010E942D2CF8C04A815B814C5F5F4FC801EA81FB816281F4CFF981F230E7
S28400688008F459C043E0741609F0EBC080E592E06A817B810E947371C090110ED090120ECA0CDB1CF6018185813009F0DAC06091210E70E02285621B7109A20102C0440F551F6A95E2F7BA01882777FD8095982F2091220E3091230E4091240E5091250E0E94D2E37B018C01EA81FB818281882361F40E94A809A0E0B0E09170A070B07058
S2840069008E0D9F1DA01FB11F07C00E94A809B7010E94FDE3A0E0B0E0F60183839483A583B683E091110EF091120EEA0DFB1D89C0F981F23068F480E592E06A817B810E9473714A815B814C5F5F4FC80163EA8ACF43E0741609F085C080E592E06A817B810E947371A091110EB091120EF501EA0FFB1F8185813009F074C02091270F30E05B
S28400698080912A0F90E001972817390739F14091290F40FF03C020E030E00CC041FF03C021E030E007C042FD03C083E090E018C022E030E08091280F820F8093270FC20102C0880F991F2A95E2F7809584238093290F8DE29FE00E94921443C080E090E000913A0F10913B0F6091210E70E026E530E0F9018E9F90018F9F300D9E9F300D8B
S284006A001124A20FB31F1A962C91621B7109A20102C0440F551F6A95E2F7BA01882777FD8095982F2091220E3091230E4091240E5091250E0E94D2E3F8016383748385839683618683E19EE00E94E73C0AC080E592E06A817B810E9473718A819B810E940B2B8114910419F4382D292D05C0C4010E94A071382F292F9B828A82832F922FDA
S284006A809C0149014A815B81452B09F09ECE2396E1E10C9450E4EF92FF920F931F93CF93DF93EC0189819A8160E070E00E947D3B8C01009759F11B8660E00E94B93BE82EFF2422C0C8016F2D0E94CC3BFC0180810E94D689DC010097B1F012968C91129780FD11C01396ED91FC91149721813281888D998D2817390731F41596ED91FC9182
S284006B001697CE010995F394FE14E0F2CDB7DEB7E6E00C945BE4A8E2B0E0E1E9F5E30C943DE48C01C62EFC01E084F184658176818FEF9DE0F70140850E942072882309F453C081E08983F701818192819B838A8392E0D92EDD86F801858196810E944456FC01009799F083E08D878081888B8181898B82818A8B83818B8B84818C8B858190
S284006B808D8B86818E8B87818F8B01C0DD86F801858196819F878E87F7018781888F858196819A8F898F838194819C8F8B8FF801878190E009979E8F8D8F19A280859185099698A38F8FCAA282858BA384859585A685B7858CA39DA3AEA3BFA3838588A7CE0101960E944B3581E0A896E8E00C9459E4A0E0B0E0EFEFF5E30C943BE47C0174
S284006C00A62EFC0100851185F801808186FFE2C08370813019F027E0B22E02C0BB24B39450910C0EA091110EB091120EED01EF9640E06B2D70E06801C60ED71E22C017968C9117978130C1F418968C911897823099F4F70125813681888199812817390759F42B813C81260F371FF6019081F9018081981709F4ACC04F5FAA5ABF4FCA5A7D
S284006C80DF4F4517E0F2ACC0F701858196810E948062FC01009769F0828D80FF0AC0CE5BDF4FE881F981C254D040779780818260808319821882CE5BDF4FA881B981C254D04082E08EAFEF96F70185819681998388838091FD0D8F5F8093FD0D8150259689931992199281E0899319928AE397E399838883C954D0408C91AA2019F48C7F9A
S284006D00826001C083608C93F80190819C708C91837F892B8C93908190718F7E892B982F9F799C93908190788F71892B8C9380814B2D50E09E012F5B3F4F84FF0CC0F70180859185840F951FFC01808111968C9382E0F9012EC088E0F9018083F801868111968C9311978281938113969C938E9312978481958115969C938E93149781812E
S284006D8016968C931697F70180859185840F951FFC01808117968C931797F801808187FF13C08085837039F418961C92F90180818F5F808309C0F90180818D5F8083F8018085837018968C93CE010B960E94652C81E001C080E0CDB7DEB7EAE00C9457E482E00E946D2AEC01009709F04DCFF2CFFC010097A9F0808191810E948062DC019A
S284006E00009781F05A968C915A9780FD09C03091090EE0910A0EF0910B0E20E090E00BC0A0E0B0E060E00BC0808180FD02C081FD9F5F2F5FB3962317B8F3632F691B50910F0E80910C0E90E04091100E252F30E0240F311D281739075CF480910D0E581738F4AB2B19F080E0623018F081E0089580E00895BC018091FB0D81508093FB0D49
S284006E8080E592E00E943F7183E00E94553C0895BC018CE492E00E943F7183E00E94553C8091FE0D8F5F8093FE0D0895BC0188E492E00E943F7183E00E94553C0895882359F01092FD0D1092FC0D1092FB0D1092FE0D83E08093210E88E492E00E9439718CE492E00E94397180E592E00E94397184E592E00E9439718FE069E07EE00E9424
S284006F00370F84E06AE07EE00E94310D20E043E250E014C0822F90E0BC01649FC001659F900D749F900D1124E0910A0EF0910B0EE80FF91F80818E7F80832F5F8091090E281740F38DE06CE07EE00E94370F83E061E17EE00E94310D90910C0EE091110EF091120E80E004C017828F5FEA5AFF4F8917D0F38091090E80930D0E91509093D6
S284006F800E0E10920F0E1092100E81E167E27EE00E94310D8AE36BE27EE00E94370F20912B0E8CE5289F900111248091270E9091280E820F931F90932A0E8093290E8AE090E0A0E0B0E08093330F9093340FA093350FB093360F87EF90E39093390F8093380F81E08093370F0E94882B08951092340E10923D0E1092320E1092390E10925F
S284007000380E1092330E1092370E10923B0E10923A0E1092360E1092350E10923C0E1092260E10922E0E10922F0E1092300E1092310E10922D0E10922C0EE4E5FEE08BE0DF011D928A95E9F73C9688E4DF011D928A95E9F720912B0E8DE5289F90011124F9978081918160E070E0A9010E94070A0895A0E0B0E0EFE3F8E30C943EE48C01D4
S284007080FC01C085D1854781F98490912B0E992309F41AC156EFD52ED40E8091260E882321F0813009F00EC139C0888533E0E32EE822F1E0EF1609F007C18695869509F003C19F1508F400C12CE52D1508F4FCC00E94F737E092260E89858093320EF801858196819093360E8093350E89818093370E8A819B819093390E8093380E8C81DF
S2840071009D8190933B0E80933A0E8E8180933C0E8F8180933D0E1092330EFF2488858370823019F0FF2009F0CFC088858695869509F0CAC08091320E8F1508F4C5C02091350E3091360EF801858196812817390709F0BAC09091370E8981981709F0B4C02091380E3091390E8A819B812817390709F0AAC020913A0E30913B0E8C819D81E4
S2840071802817390709F0A0C090913C0E8E81981709F09AC090913D0E8F81981709F094C0CF2DD0E08091330E90E002968C179D070CF48AC08CE590E09C01C29FC001C39F900DD29F900D11242091270E3091280E280F391F40855185465F5F4FC901BA014D2D50E00E94EC09E091290EF0912A0EEC0FFD1FD0824091330E4F1581F42091BF
S284007200320E241B243008F023E081E090E002C0880F991F2A95E2F781958093340E8F2D63E00E94F1E321E030E002C0220F331F9A95E2F78091340E822B8093340E8091320E90E09E012F5F3F4F8217930751F40E94302D8091340E8F3FA9F482E08093260E33C0842F90E002968C179D0759F40E94302D8091340E8F3F29F48091330E03
S2840072808D5F8093330E6091210E70E080E090E02091220E3091230E4091240E5091250E2C5E3F4F4F4F5F4F0E94D2E360932E0E70932F0E8093300E9093310E83E19EE00E94E73C80E001C081E0CDB7DEB7E7E00C945AE4A8E2B0E0E0E7F9E30C943BE47C01C62EDC0118960D911C911997F8019181892F81508E3F18F0AA24BB2404C00E
S284007300892F0E94D6895C01D80111968C9181508E3F20F4A114B10421F435C0A114B10469F0D5011396ED91FC91149721813281F801848195812817390729F5D8019C91892F869586958370823011F496FD1BC0F801208126FF19C0D70115968D919C911697885F9F4F78F427FD0FC0A114B10421F0F501828180FD06C0C70160E00E947D
S284007380F935D82E04C0DD2402C0DD24D394D8018C9187FF17C018968C91837099F0C7010E943938823008F420C1823059F41092260E10922E0E10922F0E1092300E1092310E03C0DD2009F410C1F701658176818FEF9DE0D80117964C910E942072882309F403C1F801818181508E3F20F4A114B10409F4FAC0D70112968C9112971396F0
S2840074002D913C911497813009F082E089833B832A83F80181818C87D70115968D919C9116970E944456FC01009799F083E08D878081888B8181898B82818A8B83818B8B84818C8B85818D8B86818E8B87818F8B02C082E08D87F701858196819F878E87D80116968C911697888F14968D919C9115979A8F898F12968D919C9113979C8F85
S2840074808B8F8781282F30E02A5030403E8F2D8F265F3F4F19A28C9187FD03C02850304008C082EA89A3F8018085837021F4295030403E8F2D8FD70117962C91179730E08D8D9E8D281B390B18968D919C911997820F931F98A38F8FCAA21A968C911A978BA31C968D919D910D90BC91A02D8CA39DA3AEA3BFA3F701838588A7D8018C9174
S28400750087FF2DC018968C918370823041F540E050E013C0E091290EF0912A0EE40FF51F208180912C0E90912D0E820F911D90932D0E80932C0E4F5F5F4F8091320E90E0481759073CF380912C0E90912D0E9E8F8D8F8091270E9091280E98A38F8FA114B10449F0D5011596ED91FC911697CE01019609953AC0F7018281813029F4CE01CD
S28400758001960E944B3531C0D80111968C918F3F41F500E010E07E010894E11CF11C1AC0D8011396ED91FC9114978081882391F012968C91129780FD0DC021813281898D9A8D2817390731F41596ED91FC911697C7010995C8010E94568A8C01009701F704C0CE0101960E94AD27A896EAE00C9457E4FC01A085B1858C91282F2695269524
S2840076002370213051F185FF2AC027C08370823021F1223011F1233001F16F3A19F4808981116CEA8281813069F08230B1F48C91837090E0009721F00297029770F40AC0233021F0CF010E946A3907C0CF010E948B3503C0CF010E94CA2F81E0089586FFDCCFD4CF1F93CF93DF9328C00E94203C182F8CE492E00E945E71133031F0E8855F
